{
  "_format": "hh-sol-artifact-1",
  "contractName": "CloneNFT",
  "sourceName": "contracts/CloneNFT.sol",
  "abi": [
    {
      "inputs": [
        {
          "internalType": "address",
          "name": "_monadVerifier",
          "type": "address"
        }
      ],
      "stateMutability": "nonpayable",
      "type": "constructor"
    },
    {
      "anonymous": false,
      "inputs": [
        {
          "indexed": true,
          "internalType": "address",
          "name": "owner",
          "type": "address"
        },
        {
          "indexed": true,
          "internalType": "address",
          "name": "approved",
          "type": "address"
        },
        {
          "indexed": true,
          "internalType": "uint256",
          "name": "tokenId",
          "type": "uint256"
        }
      ],
      "name": "Approval",
      "type": "event"
    },
    {
      "anonymous": false,
      "inputs": [
        {
          "indexed": true,
          "internalType": "address",
          "name": "owner",
          "type": "address"
        },
        {
          "indexed": true,
          "internalType": "address",
          "name": "operator",
          "type": "address"
        },
        {
          "indexed": false,
          "internalType": "bool",
          "name": "approved",
          "type": "bool"
        }
      ],
      "name": "ApprovalForAll",
      "type": "event"
    },
    {
      "anonymous": false,
      "inputs": [
        {
          "indexed": false,
          "internalType": "uint256",
          "name": "_fromTokenId",
          "type": "uint256"
        },
        {
          "indexed": false,
          "internalType": "uint256",
          "name": "_toTokenId",
          "type": "uint256"
        }
      ],
      "name": "BatchMetadataUpdate",
      "type": "event"
    },
    {
      "anonymous": false,
      "inputs": [
        {
          "indexed": true,
          "internalType": "address",
          "name": "owner",
          "type": "address"
        },
        {
          "indexed": false,
          "internalType": "uint256",
          "name": "tokenId",
          "type": "uint256"
        },
        {
          "indexed": false,
          "internalType": "string",
          "name": "metadataURI",
          "type": "string"
        }
      ],
      "name": "CloneMinted",
      "type": "event"
    },
    {
      "anonymous": false,
      "inputs": [
        {
          "indexed": false,
          "internalType": "uint256",
          "name": "_tokenId",
          "type": "uint256"
        }
      ],
      "name": "MetadataUpdate",
      "type": "event"
    },
    {
      "anonymous": false,
      "inputs": [
        {
          "indexed": true,
          "internalType": "address",
          "name": "previousOwner",
          "type": "address"
        },
        {
          "indexed": true,
          "internalType": "address",
          "name": "newOwner",
          "type": "address"
        }
      ],
      "name": "OwnershipTransferred",
      "type": "event"
    },
    {
      "anonymous": false,
      "inputs": [
        {
          "indexed": true,
          "internalType": "address",
          "name": "from",
          "type": "address"
        },
        {
          "indexed": true,
          "internalType": "address",
          "name": "to",
          "type": "address"
        },
        {
          "indexed": true,
          "internalType": "uint256",
          "name": "tokenId",
          "type": "uint256"
        }
      ],
      "name": "Transfer",
      "type": "event"
    },
    {
      "inputs": [
        {
          "internalType": "address",
          "name": "to",
          "type": "address"
        },
        {
          "internalType": "uint256",
          "name": "tokenId",
          "type": "uint256"
        }
      ],
      "name": "approve",
      "outputs": [],
      "stateMutability": "nonpayable",
      "type": "function"
    },
    {
      "inputs": [
        {
          "internalType": "address",
          "name": "owner",
          "type": "address"
        }
      ],
      "name": "balanceOf",
      "outputs": [
        {
          "internalType": "uint256",
          "name": "",
          "type": "uint256"
        }
      ],
      "stateMutability": "view",
      "type": "function"
    },
    {
      "inputs": [
        {
          "internalType": "uint256",
          "name": "",
          "type": "uint256"
        }
      ],
      "name": "cloneMetadata",
      "outputs": [
        {
          "internalType": "string",
          "name": "",
          "type": "string"
        }
      ],
      "stateMutability": "view",
      "type": "function"
    },
    {
      "inputs": [
        {
          "internalType": "uint256",
          "name": "tokenId",
          "type": "uint256"
        }
      ],
      "name": "getApproved",
      "outputs": [
        {
          "internalType": "address",
          "name": "",
          "type": "address"
        }
      ],
      "stateMutability": "view",
      "type": "function"
    },
    {
      "inputs": [
        {
          "internalType": "uint256",
          "name": "tokenId",
          "type": "uint256"
        }
      ],
      "name": "getCloneMetadata",
      "outputs": [
        {
          "internalType": "string",
          "name": "",
          "type": "string"
        }
      ],
      "stateMutability": "view",
      "type": "function"
    },
    {
      "inputs": [
        {
          "internalType": "address",
          "name": "owner",
          "type": "address"
        },
        {
          "internalType": "address",
          "name": "operator",
          "type": "address"
        }
      ],
      "name": "isApprovedForAll",
      "outputs": [
        {
          "internalType": "bool",
          "name": "",
          "type": "bool"
        }
      ],
      "stateMutability": "view",
      "type": "function"
    },
    {
      "inputs": [
        {
          "internalType": "address",
          "name": "to",
          "type": "address"
        },
        {
          "internalType": "string",
          "name": "metadataURI",
          "type": "string"
        }
      ],
      "name": "mintClone",
      "outputs": [],
      "stateMutability": "nonpayable",
      "type": "function"
    },
    {
      "inputs": [],
      "name": "monadVerifier",
      "outputs": [
        {
          "internalType": "address",
          "name": "",
          "type": "address"
        }
      ],
      "stateMutability": "view",
      "type": "function"
    },
    {
      "inputs": [],
      "name": "name",
      "outputs": [
        {
          "internalType": "string",
          "name": "",
          "type": "string"
        }
      ],
      "stateMutability": "view",
      "type": "function"
    },
    {
      "inputs": [],
      "name": "owner",
      "outputs": [
        {
          "internalType": "address",
          "name": "",
          "type": "address"
        }
      ],
      "stateMutability": "view",
      "type": "function"
    },
    {
      "inputs": [
        {
          "internalType": "uint256",
          "name": "tokenId",
          "type": "uint256"
        }
      ],
      "name": "ownerOf",
      "outputs": [
        {
          "internalType": "address",
          "name": "",
          "type": "address"
        }
      ],
      "stateMutability": "view",
      "type": "function"
    },
    {
      "inputs": [],
      "name": "renounceOwnership",
      "outputs": [],
      "stateMutability": "nonpayable",
      "type": "function"
    },
    {
      "inputs": [
        {
          "internalType": "address",
          "name": "from",
          "type": "address"
        },
        {
          "internalType": "address",
          "name": "to",
          "type": "address"
        },
        {
          "internalType": "uint256",
          "name": "tokenId",
          "type": "uint256"
        }
      ],
      "name": "safeTransferFrom",
      "outputs": [],
      "stateMutability": "nonpayable",
      "type": "function"
    },
    {
      "inputs": [
        {
          "internalType": "address",
          "name": "from",
          "type": "address"
        },
        {
          "internalType": "address",
          "name": "to",
          "type": "address"
        },
        {
          "internalType": "uint256",
          "name": "tokenId",
          "type": "uint256"
        },
        {
          "internalType": "bytes",
          "name": "data",
          "type": "bytes"
        }
      ],
      "name": "safeTransferFrom",
      "outputs": [],
      "stateMutability": "nonpayable",
      "type": "function"
    },
    {
      "inputs": [
        {
          "internalType": "address",
          "name": "operator",
          "type": "address"
        },
        {
          "internalType": "bool",
          "name": "approved",
          "type": "bool"
        }
      ],
      "name": "setApprovalForAll",
      "outputs": [],
      "stateMutability": "nonpayable",
      "type": "function"
    },
    {
      "inputs": [
        {
          "internalType": "bytes4",
          "name": "interfaceId",
          "type": "bytes4"
        }
      ],
      "name": "supportsInterface",
      "outputs": [
        {
          "internalType": "bool",
          "name": "",
          "type": "bool"
        }
      ],
      "stateMutability": "view",
      "type": "function"
    },
    {
      "inputs": [],
      "name": "symbol",
      "outputs": [
        {
          "internalType": "string",
          "name": "",
          "type": "string"
        }
      ],
      "stateMutability": "view",
      "type": "function"
    },
    {
      "inputs": [],
      "name": "tokenIdCounter",
      "outputs": [
        {
          "internalType": "uint256",
          "name": "",
          "type": "uint256"
        }
      ],
      "stateMutability": "view",
      "type": "function"
    },
    {
      "inputs": [
        {
          "internalType": "uint256",
          "name": "tokenId",
          "type": "uint256"
        }
      ],
      "name": "tokenURI",
      "outputs": [
        {
          "internalType": "string",
          "name": "",
          "type": "string"
        }
      ],
      "stateMutability": "view",
      "type": "function"
    },
    {
      "inputs": [
        {
          "internalType": "address",
          "name": "from",
          "type": "address"
        },
        {
          "internalType": "address",
          "name": "to",
          "type": "address"
        },
        {
          "internalType": "uint256",
          "name": "tokenId",
          "type": "uint256"
        }
      ],
      "name": "transferFrom",
      "outputs": [],
      "stateMutability": "nonpayable",
      "type": "function"
    },
    {
      "inputs": [
        {
          "internalType": "address",
          "name": "newOwner",
          "type": "address"
        }
      ],
      "name": "transferOwnership",
      "outputs": [],
      "stateMutability": "nonpayable",
      "type": "function"
    },
    {
      "inputs": [
        {
          "internalType": "uint256",
          "name": "tokenId",
          "type": "uint256"
        },
        {
          "internalType": "string",
          "name": "newMetadataURI",
          "type": "string"
        }
      ],
      "name": "updateMetadata",
      "outputs": [],
      "stateMutability": "nonpayable",
      "type": "function"
    },
    {
      "inputs": [
        {
          "internalType": "address",
          "name": "user",
          "type": "address"
        },
        {
          "internalType": "uint256",
          "name": "tokenId",
          "type": "uint256"
        }
      ],
      "name": "verifyOwnership",
      "outputs": [
        {
          "internalType": "bool",
          "name": "",
          "type": "bool"
        }
      ],
      "stateMutability": "view",
      "type": "function"
    }
  ],
  "bytecode": "0x60806040523480156200001157600080fd5b50604051620039fe380380620039fe833981810160405281019062000037919062000271565b6040518060400160405280600a81526020017f4149436c6f6e654e4654000000000000000000000000000000000000000000008152506040518060400160405280600781526020017f4149436c6f6e65000000000000000000000000000000000000000000000000008152508160009081620000b491906200051d565b508060019081620000c691906200051d565b505050620000e9620000dd6200013960201b60201c565b6200014160201b60201c565b80600960006101000a81548173ffffffffffffffffffffffffffffffffffffffff021916908373ffffffffffffffffffffffffffffffffffffffff16021790555060016008819055505062000604565b600033905090565b6000600760009054906101000a900473ffffffffffffffffffffffffffffffffffffffff16905081600760006101000a81548173ffffffffffffffffffffffffffffffffffffffff021916908373ffffffffffffffffffffffffffffffffffffffff1602179055508173ffffffffffffffffffffffffffffffffffffffff168173ffffffffffffffffffffffffffffffffffffffff167f8be0079c531659141344cd1fd0a4f28419497f9722a3daafe3b4186f6b6457e060405160405180910390a35050565b600080fd5b600073ffffffffffffffffffffffffffffffffffffffff82169050919050565b600062000239826200020c565b9050919050565b6200024b816200022c565b81146200025757600080fd5b50565b6000815190506200026b8162000240565b92915050565b6000602082840312156200028a576200028962000207565b5b60006200029a848285016200025a565b91505092915050565b600081519050919050565b7f4e487b7100000000000000000000000000000000000000000000000000000000600052604160045260246000fd5b7f4e487b7100000000000000000000000000000000000000000000000000000000600052602260045260246000fd5b600060028204905060018216806200032557607f821691505b6020821081036200033b576200033a620002dd565b5b50919050565b60008190508160005260206000209050919050565b60006020601f8301049050919050565b600082821b905092915050565b600060088302620003a57fffffffffffffffffffffffffffffffffffffffffffffffffffffffffffffffff8262000366565b620003b1868362000366565b95508019841693508086168417925050509392505050565b6000819050919050565b6000819050919050565b6000620003fe620003f8620003f284620003c9565b620003d3565b620003c9565b9050919050565b6000819050919050565b6200041a83620003dd565b62000432620004298262000405565b84845462000373565b825550505050565b600090565b620004496200043a565b620004568184846200040f565b505050565b5b818110156200047e57620004726000826200043f565b6001810190506200045c565b5050565b601f821115620004cd57620004978162000341565b620004a28462000356565b81016020851015620004b2578190505b620004ca620004c18562000356565b8301826200045b565b50505b505050565b600082821c905092915050565b6000620004f260001984600802620004d2565b1980831691505092915050565b60006200050d8383620004df565b9150826002028217905092915050565b6200052882620002a3565b67ffffffffffffffff811115620005445762000543620002ae565b5b6200055082546200030c565b6200055d82828562000482565b600060209050601f83116001811462000595576000841562000580578287015190505b6200058c8582620004ff565b865550620005fc565b601f198416620005a58662000341565b60005b82811015620005cf57848901518255600182019150602085019450602081019050620005a8565b86831015620005ef5784890151620005eb601f891682620004df565b8355505b6001600288020188555050505b505050505050565b6133ea80620006146000396000f3fe608060405234801561001057600080fd5b506004361061014d5760003560e01c806370a08231116100c3578063a5c26ea81161007c578063a5c26ea81461039c578063b88d4fde146103ba578063bce4713f146103d6578063c87b56dd14610406578063e985e9c514610436578063f2fde38b146104665761014d565b806370a08231146102ec578063715018a61461031c5780638da5cb5b1461032657806395d89b411461034457806398bdf6f514610362578063a22cb465146103805761014d565b806323b872dd1161011557806323b872dd1461020857806332cd3a5c1461022457806342842e0e1461025457806353c8388e146102705780635b14ed0b1461028c5780636352211e146102bc5761014d565b806301ffc9a71461015257806306fdde0314610182578063081812fc146101a0578063095ea7b3146101d0578063219a88e9146101ec575b600080fd5b61016c6004803603810190610167919061206c565b610482565b60405161017991906120b4565b60405180910390f35b61018a6104e3565b604051610197919061215f565b60405180910390f35b6101ba60048036038101906101b591906121b7565b610575565b6040516101c79190612225565b60405180910390f35b6101ea60048036038101906101e5919061226c565b6105bb565b005b610206600480360381019061020191906123e1565b6106d2565b005b610222600480360381019061021d919061243d565b61077b565b005b61023e600480360381019061023991906121b7565b6107db565b60405161024b919061215f565b60405180910390f35b61026e6004803603810190610269919061243d565b61087b565b005b61028a60048036038101906102859190612490565b61089b565b005b6102a660048036038101906102a1919061226c565b610940565b6040516102b391906120b4565b60405180910390f35b6102d660048036038101906102d191906121b7565b610981565b6040516102e39190612225565b60405180910390f35b610306600480360381019061030191906124ec565b610a07565b6040516103139190612528565b60405180910390f35b610324610abe565b005b61032e610ad2565b60405161033b9190612225565b60405180910390f35b61034c610afc565b604051610359919061215f565b60405180910390f35b61036a610b8e565b6040516103779190612528565b60405180910390f35b61039a6004803603810190610395919061256f565b610b94565b005b6103a4610baa565b6040516103b19190612225565b60405180910390f35b6103d460048036038101906103cf9190612650565b610bd0565b005b6103f060048036038101906103eb91906121b7565b610c32565b6040516103fd919061215f565b60405180910390f35b610420600480360381019061041b91906121b7565b610cd7565b60405161042d919061215f565b60405180910390f35b610450600480360381019061044b91906126d3565b610de9565b60405161045d91906120b4565b60405180910390f35b610480600480360381019061047b91906124ec565b610e7d565b005b6000634906490660e01b7bffffffffffffffffffffffffffffffffffffffffffffffffffffffff1916827bffffffffffffffffffffffffffffffffffffffffffffffffffffffff191614806104dc57506104db82610f00565b5b9050919050565b6060600080546104f290612742565b80601f016020809104026020016040519081016040528092919081815260200182805461051e90612742565b801561056b5780601f106105405761010080835404028352916020019161056b565b820191906000526020600020905b81548152906001019060200180831161054e57829003601f168201915b5050505050905090565b600061058082610fe2565b6004600083815260200190815260200160002060009054906101000a900473ffffffffffffffffffffffffffffffffffffffff169050919050565b60006105c682610981565b90508073ffffffffffffffffffffffffffffffffffffffff168373ffffffffffffffffffffffffffffffffffffffff1603610636576040517f08c379a000000000000000000000000000000000000000000000000000000000815260040161062d906127e5565b60405180910390fd5b8073ffffffffffffffffffffffffffffffffffffffff1661065561102d565b73ffffffffffffffffffffffffffffffffffffffff16148061068457506106838161067e61102d565b610de9565b5b6106c3576040517f08c379a00000000000000000000000000000000000000000000000000000000081526004016106ba90612877565b60405180910390fd5b6106cd8383611035565b505050565b600060085490506106e383826110ee565b6106ed818361110c565b81600a6000838152602001908152602001600020908161070d9190612a43565b506008600081548092919061072190612b44565b91905055508273ffffffffffffffffffffffffffffffffffffffff167ffe9facaeda7803844b4b343f9e20ad535f18b4e1d9c8c8c4d09414c5abd72248828460405161076e929190612b8c565b60405180910390a2505050565b61078c61078661102d565b826111b0565b6107cb576040517f08c379a00000000000000000000000000000000000000000000000000000000081526004016107c290612c2e565b60405180910390fd5b6107d6838383611245565b505050565b600a60205280600052604060002060009150905080546107fa90612742565b80601f016020809104026020016040519081016040528092919081815260200182805461082690612742565b80156108735780601f1061084857610100808354040283529160200191610873565b820191906000526020600020905b81548152906001019060200180831161085657829003601f168201915b505050505081565b61089683838360405180602001604052806000815250610bd0565b505050565b3373ffffffffffffffffffffffffffffffffffffffff166108bb83610981565b73ffffffffffffffffffffffffffffffffffffffff1614610911576040517f08c379a000000000000000000000000000000000000000000000000000000000815260040161090890612c9a565b60405180910390fd5b61091b828261110c565b80600a6000848152602001908152602001600020908161093b9190612a43565b505050565b60008273ffffffffffffffffffffffffffffffffffffffff1661096283610981565b73ffffffffffffffffffffffffffffffffffffffff1614905092915050565b60008061098d8361153e565b9050600073ffffffffffffffffffffffffffffffffffffffff168173ffffffffffffffffffffffffffffffffffffffff16036109fe576040517f08c379a00000000000000000000000000000000000000000000000000000000081526004016109f590612d06565b60405180910390fd5b80915050919050565b60008073ffffffffffffffffffffffffffffffffffffffff168273ffffffffffffffffffffffffffffffffffffffff1603610a77576040517f08c379a0000000000000000000000000000000000000000000000000000000008152600401610a6e90612d98565b60405180910390fd5b600360008373ffffffffffffffffffffffffffffffffffffffff1673ffffffffffffffffffffffffffffffffffffffff168152602001908152602001600020549050919050565b610ac661157b565b610ad060006115f9565b565b6000600760009054906101000a900473ffffffffffffffffffffffffffffffffffffffff16905090565b606060018054610b0b90612742565b80601f0160208091040260200160405190810160405280929190818152602001828054610b3790612742565b8015610b845780601f10610b5957610100808354040283529160200191610b84565b820191906000526020600020905b815481529060010190602001808311610b6757829003601f168201915b5050505050905090565b60085481565b610ba6610b9f61102d565b83836116bf565b5050565b600960009054906101000a900473ffffffffffffffffffffffffffffffffffffffff1681565b610be1610bdb61102d565b836111b0565b610c20576040517f08c379a0000000000000000000000000000000000000000000000000000000008152600401610c1790612c2e565b60405180910390fd5b610c2c8484848461182b565b50505050565b6060600a60008381526020019081526020016000208054610c5290612742565b80601f0160208091040260200160405190810160405280929190818152602001828054610c7e90612742565b8015610ccb5780601f10610ca057610100808354040283529160200191610ccb565b820191906000526020600020905b815481529060010190602001808311610cae57829003601f168201915b50505050509050919050565b6060610ce282610fe2565b6000600660008481526020019081526020016000208054610d0290612742565b80601f0160208091040260200160405190810160405280929190818152602001828054610d2e90612742565b8015610d7b5780601f10610d5057610100808354040283529160200191610d7b565b820191906000526020600020905b815481529060010190602001808311610d5e57829003601f168201915b505050505090506000610d8c611887565b90506000815103610da1578192505050610de4565b600082511115610dd6578082604051602001610dbe929190612df4565b60405160208183030381529060405292505050610de4565b610ddf8461189e565b925050505b919050565b6000600560008473ffffffffffffffffffffffffffffffffffffffff1673ffffffffffffffffffffffffffffffffffffffff16815260200190815260200160002060008373ffffffffffffffffffffffffffffffffffffffff1673ffffffffffffffffffffffffffffffffffffffff16815260200190815260200160002060009054906101000a900460ff16905092915050565b610e8561157b565b600073ffffffffffffffffffffffffffffffffffffffff168173ffffffffffffffffffffffffffffffffffffffff1603610ef4576040517f08c379a0000000000000000000000000000000000000000000000000000000008152600401610eeb90612e8a565b60405180910390fd5b610efd816115f9565b50565b60007f80ac58cd000000000000000000000000000000000000000000000000000000007bffffffffffffffffffffffffffffffffffffffffffffffffffffffff1916827bffffffffffffffffffffffffffffffffffffffffffffffffffffffff19161480610fcb57507f5b5e139f000000000000000000000000000000000000000000000000000000007bffffffffffffffffffffffffffffffffffffffffffffffffffffffff1916827bffffffffffffffffffffffffffffffffffffffffffffffffffffffff1916145b80610fdb5750610fda82611906565b5b9050919050565b610feb81611970565b61102a576040517f08c379a000000000000000000000000000000000000000000000000000000000815260040161102190612d06565b60405180910390fd5b50565b600033905090565b816004600083815260200190815260200160002060006101000a81548173ffffffffffffffffffffffffffffffffffffffff021916908373ffffffffffffffffffffffffffffffffffffffff160217905550808273ffffffffffffffffffffffffffffffffffffffff166110a883610981565b73ffffffffffffffffffffffffffffffffffffffff167f8c5be1e5ebec7d5bd14f71427d1e84f3dd0314c0f7b2291e5b200ac8c7c3b92560405160405180910390a45050565b6111088282604051806020016040528060008152506119b1565b5050565b61111582611970565b611154576040517f08c379a000000000000000000000000000000000000000000000000000000000815260040161114b90612f1c565b60405180910390fd5b806006600084815260200190815260200160002090816111749190612a43565b507ff8e1a15aba9398e019f0b49df1a4fde98ee17ae345cb5f6b5e2c27f5033e8ce7826040516111a49190612528565b60405180910390a15050565b6000806111bc83610981565b90508073ffffffffffffffffffffffffffffffffffffffff168473ffffffffffffffffffffffffffffffffffffffff1614806111fe57506111fd8185610de9565b5b8061123c57508373ffffffffffffffffffffffffffffffffffffffff1661122484610575565b73ffffffffffffffffffffffffffffffffffffffff16145b91505092915050565b8273ffffffffffffffffffffffffffffffffffffffff1661126582610981565b73ffffffffffffffffffffffffffffffffffffffff16146112bb576040517f08c379a00000000000000000000000000000000000000000000000000000000081526004016112b290612fae565b60405180910390fd5b600073ffffffffffffffffffffffffffffffffffffffff168273ffffffffffffffffffffffffffffffffffffffff160361132a576040517f08c379a000000000000000000000000000000000000000000000000000000000815260040161132190613040565b60405180910390fd5b6113378383836001611a0c565b8273ffffffffffffffffffffffffffffffffffffffff1661135782610981565b73ffffffffffffffffffffffffffffffffffffffff16146113ad576040517f08c379a00000000000000000000000000000000000000000000000000000000081526004016113a490612fae565b60405180910390fd5b6004600082815260200190815260200160002060006101000a81549073ffffffffffffffffffffffffffffffffffffffff02191690556001600360008573ffffffffffffffffffffffffffffffffffffffff1673ffffffffffffffffffffffffffffffffffffffff168152602001908152602001600020600082825403925050819055506001600360008473ffffffffffffffffffffffffffffffffffffffff1673ffffffffffffffffffffffffffffffffffffffff16815260200190815260200160002060008282540192505081905550816002600083815260200190815260200160002060006101000a81548173ffffffffffffffffffffffffffffffffffffffff021916908373ffffffffffffffffffffffffffffffffffffffff160217905550808273ffffffffffffffffffffffffffffffffffffffff168473ffffffffffffffffffffffffffffffffffffffff167fddf252ad1be2c89b69c2b068fc378daa952ba7f163c4a11628f55a4df523b3ef60405160405180910390a46115398383836001611a12565b505050565b60006002600083815260200190815260200160002060009054906101000a900473ffffffffffffffffffffffffffffffffffffffff169050919050565b61158361102d565b73ffffffffffffffffffffffffffffffffffffffff166115a1610ad2565b73ffffffffffffffffffffffffffffffffffffffff16146115f7576040517f08c379a00000000000000000000000000000000000000000000000000000000081526004016115ee906130ac565b60405180910390fd5b565b6000600760009054906101000a900473ffffffffffffffffffffffffffffffffffffffff16905081600760006101000a81548173ffffffffffffffffffffffffffffffffffffffff021916908373ffffffffffffffffffffffffffffffffffffffff1602179055508173ffffffffffffffffffffffffffffffffffffffff168173ffffffffffffffffffffffffffffffffffffffff167f8be0079c531659141344cd1fd0a4f28419497f9722a3daafe3b4186f6b6457e060405160405180910390a35050565b8173ffffffffffffffffffffffffffffffffffffffff168373ffffffffffffffffffffffffffffffffffffffff160361172d576040517f08c379a000000000000000000000000000000000000000000000000000000000815260040161172490613118565b60405180910390fd5b80600560008573ffffffffffffffffffffffffffffffffffffffff1673ffffffffffffffffffffffffffffffffffffffff16815260200190815260200160002060008473ffffffffffffffffffffffffffffffffffffffff1673ffffffffffffffffffffffffffffffffffffffff16815260200190815260200160002060006101000a81548160ff0219169083151502179055508173ffffffffffffffffffffffffffffffffffffffff168373ffffffffffffffffffffffffffffffffffffffff167f17307eab39ab6107e8899845ad3d59bd9653f200f220920489ca2b5937696c318360405161181e91906120b4565b60405180910390a3505050565b611836848484611245565b61184284848484611a18565b611881576040517f08c379a0000000000000000000000000000000000000000000000000000000008152600401611878906131aa565b60405180910390fd5b50505050565b606060405180602001604052806000815250905090565b60606118a982610fe2565b60006118b3611887565b905060008151116118d357604051806020016040528060008152506118fe565b806118dd84611b9f565b6040516020016118ee929190612df4565b6040516020818303038152906040525b915050919050565b60007f01ffc9a7000000000000000000000000000000000000000000000000000000007bffffffffffffffffffffffffffffffffffffffffffffffffffffffff1916827bffffffffffffffffffffffffffffffffffffffffffffffffffffffff1916149050919050565b60008073ffffffffffffffffffffffffffffffffffffffff166119928361153e565b73ffffffffffffffffffffffffffffffffffffffff1614159050919050565b6119bb8383611c6d565b6119c86000848484611a18565b611a07576040517f08c379a00000000000000000000000000000000000000000000000000000000081526004016119fe906131aa565b60405180910390fd5b505050565b50505050565b50505050565b6000611a398473ffffffffffffffffffffffffffffffffffffffff16611e8a565b15611b92578373ffffffffffffffffffffffffffffffffffffffff1663150b7a02611a6261102d565b8786866040518563ffffffff1660e01b8152600401611a84949392919061321f565b6020604051808303816000875af1925050508015611ac057506040513d601f19601f82011682018060405250810190611abd9190613280565b60015b611b42573d8060008114611af0576040519150601f19603f3d011682016040523d82523d6000602084013e611af5565b606091505b506000815103611b3a576040517f08c379a0000000000000000000000000000000000000000000000000000000008152600401611b31906131aa565b60405180910390fd5b805181602001fd5b63150b7a0260e01b7bffffffffffffffffffffffffffffffffffffffffffffffffffffffff1916817bffffffffffffffffffffffffffffffffffffffffffffffffffffffff191614915050611b97565b600190505b949350505050565b606060006001611bae84611ead565b01905060008167ffffffffffffffff811115611bcd57611bcc6122b6565b5b6040519080825280601f01601f191660200182016040528015611bff5781602001600182028036833780820191505090505b509050600082602001820190505b600115611c62578080600190039150507f3031323334353637383961626364656600000000000000000000000000000000600a86061a8153600a8581611c5657611c556132ad565b5b04945060008503611c0d575b819350505050919050565b600073ffffffffffffffffffffffffffffffffffffffff168273ffffffffffffffffffffffffffffffffffffffff1603611cdc576040517f08c379a0000000000000000000000000000000000000000000000000000000008152600401611cd390613328565b60405180910390fd5b611ce581611970565b15611d25576040517f08c379a0000000000000000000000000000000000000000000000000000000008152600401611d1c90613394565b60405180910390fd5b611d33600083836001611a0c565b611d3c81611970565b15611d7c576040517f08c379a0000000000000000000000000000000000000000000000000000000008152600401611d7390613394565b60405180910390fd5b6001600360008473ffffffffffffffffffffffffffffffffffffffff1673ffffffffffffffffffffffffffffffffffffffff16815260200190815260200160002060008282540192505081905550816002600083815260200190815260200160002060006101000a81548173ffffffffffffffffffffffffffffffffffffffff021916908373ffffffffffffffffffffffffffffffffffffffff160217905550808273ffffffffffffffffffffffffffffffffffffffff16600073ffffffffffffffffffffffffffffffffffffffff167fddf252ad1be2c89b69c2b068fc378daa952ba7f163c4a11628f55a4df523b3ef60405160405180910390a4611e86600083836001611a12565b5050565b6000808273ffffffffffffffffffffffffffffffffffffffff163b119050919050565b600080600090507a184f03e93ff9f4daa797ed6e38ed64bf6a1f0100000000000000008310611f0b577a184f03e93ff9f4daa797ed6e38ed64bf6a1f0100000000000000008381611f0157611f006132ad565b5b0492506040810190505b6d04ee2d6d415b85acef81000000008310611f48576d04ee2d6d415b85acef81000000008381611f3e57611f3d6132ad565b5b0492506020810190505b662386f26fc100008310611f7757662386f26fc100008381611f6d57611f6c6132ad565b5b0492506010810190505b6305f5e1008310611fa0576305f5e1008381611f9657611f956132ad565b5b0492506008810190505b6127108310611fc5576127108381611fbb57611fba6132ad565b5b0492506004810190505b60648310611fe85760648381611fde57611fdd6132ad565b5b0492506002810190505b600a8310611ff7576001810190505b80915050919050565b6000604051905090565b600080fd5b600080fd5b60007fffffffff0000000000000000000000000000000000000000000000000000000082169050919050565b61204981612014565b811461205457600080fd5b50565b60008135905061206681612040565b92915050565b6000602082840312156120825761208161200a565b5b600061209084828501612057565b91505092915050565b60008115159050919050565b6120ae81612099565b82525050565b60006020820190506120c960008301846120a5565b92915050565b600081519050919050565b600082825260208201905092915050565b60005b838110156121095780820151818401526020810190506120ee565b60008484015250505050565b6000601f19601f8301169050919050565b6000612131826120cf565b61213b81856120da565b935061214b8185602086016120eb565b61215481612115565b840191505092915050565b600060208201905081810360008301526121798184612126565b905092915050565b6000819050919050565b61219481612181565b811461219f57600080fd5b50565b6000813590506121b18161218b565b92915050565b6000602082840312156121cd576121cc61200a565b5b60006121db848285016121a2565b91505092915050565b600073ffffffffffffffffffffffffffffffffffffffff82169050919050565b600061220f826121e4565b9050919050565b61221f81612204565b82525050565b600060208201905061223a6000830184612216565b92915050565b61224981612204565b811461225457600080fd5b50565b60008135905061226681612240565b92915050565b600080604083850312156122835761228261200a565b5b600061229185828601612257565b92505060206122a2858286016121a2565b9150509250929050565b600080fd5b600080fd5b7f4e487b7100000000000000000000000000000000000000000000000000000000600052604160045260246000fd5b6122ee82612115565b810181811067ffffffffffffffff8211171561230d5761230c6122b6565b5b80604052505050565b6000612320612000565b905061232c82826122e5565b919050565b600067ffffffffffffffff82111561234c5761234b6122b6565b5b61235582612115565b9050602081019050919050565b82818337600083830152505050565b600061238461237f84612331565b612316565b9050828152602081018484840111156123a05761239f6122b1565b5b6123ab848285612362565b509392505050565b600082601f8301126123c8576123c76122ac565b5b81356123d8848260208601612371565b91505092915050565b600080604083850312156123f8576123f761200a565b5b600061240685828601612257565b925050602083013567ffffffffffffffff8111156124275761242661200f565b5b612433858286016123b3565b9150509250929050565b6000806000606084860312156124565761245561200a565b5b600061246486828701612257565b935050602061247586828701612257565b9250506040612486868287016121a2565b9150509250925092565b600080604083850312156124a7576124a661200a565b5b60006124b5858286016121a2565b925050602083013567ffffffffffffffff8111156124d6576124d561200f565b5b6124e2858286016123b3565b9150509250929050565b6000602082840312156125025761250161200a565b5b600061251084828501612257565b91505092915050565b61252281612181565b82525050565b600060208201905061253d6000830184612519565b92915050565b61254c81612099565b811461255757600080fd5b50565b60008135905061256981612543565b92915050565b600080604083850312156125865761258561200a565b5b600061259485828601612257565b92505060206125a58582860161255a565b9150509250929050565b600067ffffffffffffffff8211156125ca576125c96122b6565b5b6125d382612115565b9050602081019050919050565b60006125f36125ee846125af565b612316565b90508281526020810184848401111561260f5761260e6122b1565b5b61261a848285612362565b509392505050565b600082601f830112612637576126366122ac565b5b81356126478482602086016125e0565b91505092915050565b6000806000806080858703121561266a5761266961200a565b5b600061267887828801612257565b945050602061268987828801612257565b935050604061269a878288016121a2565b925050606085013567ffffffffffffffff8111156126bb576126ba61200f565b5b6126c787828801612622565b91505092959194509250565b600080604083850312156126ea576126e961200a565b5b60006126f885828601612257565b925050602061270985828601612257565b9150509250929050565b7f4e487b7100000000000000000000000000000000000000000000000000000000600052602260045260246000fd5b6000600282049050600182168061275a57607f821691505b60208210810361276d5761276c612713565b5b50919050565b7f4552433732313a20617070726f76616c20746f2063757272656e74206f776e6560008201527f7200000000000000000000000000000000000000000000000000000000000000602082015250565b60006127cf6021836120da565b91506127da82612773565b604082019050919050565b600060208201905081810360008301526127fe816127c2565b9050919050565b7f4552433732313a20617070726f76652063616c6c6572206973206e6f7420746f60008201527f6b656e206f776e6572206f7220617070726f76656420666f7220616c6c000000602082015250565b6000612861603d836120da565b915061286c82612805565b604082019050919050565b6000602082019050818103600083015261289081612854565b9050919050565b60008190508160005260206000209050919050565b60006020601f8301049050919050565b600082821b905092915050565b6000600883026128f97fffffffffffffffffffffffffffffffffffffffffffffffffffffffffffffffff826128bc565b61290386836128bc565b95508019841693508086168417925050509392505050565b6000819050919050565b600061294061293b61293684612181565b61291b565b612181565b9050919050565b6000819050919050565b61295a83612925565b61296e61296682612947565b8484546128c9565b825550505050565b600090565b612983612976565b61298e818484612951565b505050565b5b818110156129b2576129a760008261297b565b600181019050612994565b5050565b601f8211156129f7576129c881612897565b6129d1846128ac565b810160208510156129e0578190505b6129f46129ec856128ac565b830182612993565b50505b505050565b600082821c905092915050565b6000612a1a600019846008026129fc565b1980831691505092915050565b6000612a338383612a09565b9150826002028217905092915050565b612a4c826120cf565b67ffffffffffffffff811115612a6557612a646122b6565b5b612a6f8254612742565b612a7a8282856129b6565b600060209050601f831160018114612aad5760008415612a9b578287015190505b612aa58582612a27565b865550612b0d565b601f198416612abb86612897565b60005b82811015612ae357848901518255600182019150602085019450602081019050612abe565b86831015612b005784890151612afc601f891682612a09565b8355505b6001600288020188555050505b505050505050565b7f4e487b7100000000000000000000000000000000000000000000000000000000600052601160045260246000fd5b6000612b4f82612181565b91507fffffffffffffffffffffffffffffffffffffffffffffffffffffffffffffffff8203612b8157612b80612b15565b5b600182019050919050565b6000604082019050612ba16000830185612519565b8181036020830152612bb38184612126565b90509392505050565b7f4552433732313a2063616c6c6572206973206e6f7420746f6b656e206f776e6560008201527f72206f7220617070726f76656400000000000000000000000000000000000000602082015250565b6000612c18602d836120da565b9150612c2382612bbc565b604082019050919050565b60006020820190508181036000830152612c4781612c0b565b9050919050565b7f4e6f74206f776e65720000000000000000000000000000000000000000000000600082015250565b6000612c846009836120da565b9150612c8f82612c4e565b602082019050919050565b60006020820190508181036000830152612cb381612c77565b9050919050565b7f4552433732313a20696e76616c696420746f6b656e2049440000000000000000600082015250565b6000612cf06018836120da565b9150612cfb82612cba565b602082019050919050565b60006020820190508181036000830152612d1f81612ce3565b9050919050565b7f4552433732313a2061646472657373207a65726f206973206e6f74206120766160008201527f6c6964206f776e65720000000000000000000000000000000000000000000000602082015250565b6000612d826029836120da565b9150612d8d82612d26565b604082019050919050565b60006020820190508181036000830152612db181612d75565b9050919050565b600081905092915050565b6000612dce826120cf565b612dd88185612db8565b9350612de88185602086016120eb565b80840191505092915050565b6000612e008285612dc3565b9150612e0c8284612dc3565b91508190509392505050565b7f4f776e61626c653a206e6577206f776e657220697320746865207a65726f206160008201527f6464726573730000000000000000000000000000000000000000000000000000602082015250565b6000612e746026836120da565b9150612e7f82612e18565b604082019050919050565b60006020820190508181036000830152612ea381612e67565b9050919050565b7f45524337323155524953746f726167653a2055524920736574206f66206e6f6e60008201527f6578697374656e7420746f6b656e000000000000000000000000000000000000602082015250565b6000612f06602e836120da565b9150612f1182612eaa565b604082019050919050565b60006020820190508181036000830152612f3581612ef9565b9050919050565b7f4552433732313a207472616e736665722066726f6d20696e636f72726563742060008201527f6f776e6572000000000000000000000000000000000000000000000000000000602082015250565b6000612f986025836120da565b9150612fa382612f3c565b604082019050919050565b60006020820190508181036000830152612fc781612f8b565b9050919050565b7f4552433732313a207472616e7366657220746f20746865207a65726f2061646460008201527f7265737300000000000000000000000000000000000000000000000000000000602082015250565b600061302a6024836120da565b915061303582612fce565b604082019050919050565b600060208201905081810360008301526130598161301d565b9050919050565b7f4f776e61626c653a2063616c6c6572206973206e6f7420746865206f776e6572600082015250565b60006130966020836120da565b91506130a182613060565b602082019050919050565b600060208201905081810360008301526130c581613089565b9050919050565b7f4552433732313a20617070726f766520746f2063616c6c657200000000000000600082015250565b60006131026019836120da565b915061310d826130cc565b602082019050919050565b60006020820190508181036000830152613131816130f5565b9050919050565b7f4552433732313a207472616e7366657220746f206e6f6e20455243373231526560008201527f63656976657220696d706c656d656e7465720000000000000000000000000000602082015250565b60006131946032836120da565b915061319f82613138565b604082019050919050565b600060208201905081810360008301526131c381613187565b9050919050565b600081519050919050565b600082825260208201905092915050565b60006131f1826131ca565b6131fb81856131d5565b935061320b8185602086016120eb565b61321481612115565b840191505092915050565b60006080820190506132346000830187612216565b6132416020830186612216565b61324e6040830185612519565b818103606083015261326081846131e6565b905095945050505050565b60008151905061327a81612040565b92915050565b6000602082840312156132965761329561200a565b5b60006132a48482850161326b565b91505092915050565b7f4e487b7100000000000000000000000000000000000000000000000000000000600052601260045260246000fd5b7f4552433732313a206d696e7420746f20746865207a65726f2061646472657373600082015250565b60006133126020836120da565b915061331d826132dc565b602082019050919050565b6000602082019050818103600083015261334181613305565b9050919050565b7f4552433732313a20746f6b656e20616c7265616479206d696e74656400000000600082015250565b600061337e601c836120da565b915061338982613348565b602082019050919050565b600060208201905081810360008301526133ad81613371565b905091905056fea2646970667358221220ca787707f82354fa671f06f1e2da12827509194ad7ad7195c5cb5ace0695fa2e64736f6c63430008140033",
  "linkReferences": {},
  "deployedLinkReferences": {}
}