{
  "_format": "hh-sol-artifact-1",
  "contractName": "CloneNFT",
  "sourceName": "contracts/CloneNFT.sol",
  "abi": [
    {
      "inputs": [],
      "stateMutability": "nonpayable",
      "type": "constructor"
    },
    {
      "anonymous": false,
      "inputs": [
        {
          "indexed": true,
          "internalType": "address",
          "name": "owner",
          "type": "address"
        },
        {
          "indexed": true,
          "internalType": "address",
          "name": "approved",
          "type": "address"
        },
        {
          "indexed": true,
          "internalType": "uint256",
          "name": "tokenId",
          "type": "uint256"
        }
      ],
      "name": "Approval",
      "type": "event"
    },
    {
      "anonymous": false,
      "inputs": [
        {
          "indexed": true,
          "internalType": "address",
          "name": "owner",
          "type": "address"
        },
        {
          "indexed": true,
          "internalType": "address",
          "name": "operator",
          "type": "address"
        },
        {
          "indexed": false,
          "internalType": "bool",
          "name": "approved",
          "type": "bool"
        }
      ],
      "name": "ApprovalForAll",
      "type": "event"
    },
    {
      "anonymous": false,
      "inputs": [
        {
          "indexed": false,
          "internalType": "uint256",
          "name": "_fromTokenId",
          "type": "uint256"
        },
        {
          "indexed": false,
          "internalType": "uint256",
          "name": "_toTokenId",
          "type": "uint256"
        }
      ],
      "name": "BatchMetadataUpdate",
      "type": "event"
    },
    {
      "anonymous": false,
      "inputs": [
        {
          "indexed": false,
          "internalType": "uint256",
          "name": "tokenId",
          "type": "uint256"
        }
      ],
      "name": "CloneBurned",
      "type": "event"
    },
    {
      "anonymous": false,
      "inputs": [
        {
          "indexed": true,
          "internalType": "address",
          "name": "owner",
          "type": "address"
        },
        {
          "indexed": false,
          "internalType": "uint256",
          "name": "tokenId",
          "type": "uint256"
        },
        {
          "indexed": false,
          "internalType": "string",
          "name": "metadataURI",
          "type": "string"
        }
      ],
      "name": "CloneMinted",
      "type": "event"
    },
    {
      "anonymous": false,
      "inputs": [
        {
          "indexed": false,
          "internalType": "uint256",
          "name": "_tokenId",
          "type": "uint256"
        }
      ],
      "name": "MetadataUpdate",
      "type": "event"
    },
    {
      "anonymous": false,
      "inputs": [
        {
          "indexed": true,
          "internalType": "address",
          "name": "previousOwner",
          "type": "address"
        },
        {
          "indexed": true,
          "internalType": "address",
          "name": "newOwner",
          "type": "address"
        }
      ],
      "name": "OwnershipTransferred",
      "type": "event"
    },
    {
      "anonymous": false,
      "inputs": [
        {
          "indexed": true,
          "internalType": "address",
          "name": "from",
          "type": "address"
        },
        {
          "indexed": true,
          "internalType": "address",
          "name": "to",
          "type": "address"
        },
        {
          "indexed": true,
          "internalType": "uint256",
          "name": "tokenId",
          "type": "uint256"
        }
      ],
      "name": "Transfer",
      "type": "event"
    },
    {
      "inputs": [
        {
          "internalType": "address",
          "name": "to",
          "type": "address"
        },
        {
          "internalType": "uint256",
          "name": "tokenId",
          "type": "uint256"
        }
      ],
      "name": "approve",
      "outputs": [],
      "stateMutability": "nonpayable",
      "type": "function"
    },
    {
      "inputs": [
        {
          "internalType": "address",
          "name": "owner",
          "type": "address"
        }
      ],
      "name": "balanceOf",
      "outputs": [
        {
          "internalType": "uint256",
          "name": "",
          "type": "uint256"
        }
      ],
      "stateMutability": "view",
      "type": "function"
    },
    {
      "inputs": [
        {
          "internalType": "uint256",
          "name": "tokenId",
          "type": "uint256"
        }
      ],
      "name": "burn",
      "outputs": [],
      "stateMutability": "nonpayable",
      "type": "function"
    },
    {
      "inputs": [
        {
          "internalType": "uint256",
          "name": "",
          "type": "uint256"
        }
      ],
      "name": "cloneMetadata",
      "outputs": [
        {
          "internalType": "string",
          "name": "",
          "type": "string"
        }
      ],
      "stateMutability": "view",
      "type": "function"
    },
    {
      "inputs": [
        {
          "internalType": "uint256",
          "name": "tokenId",
          "type": "uint256"
        }
      ],
      "name": "exists",
      "outputs": [
        {
          "internalType": "bool",
          "name": "",
          "type": "bool"
        }
      ],
      "stateMutability": "view",
      "type": "function"
    },
    {
      "inputs": [
        {
          "internalType": "uint256",
          "name": "tokenId",
          "type": "uint256"
        }
      ],
      "name": "getApproved",
      "outputs": [
        {
          "internalType": "address",
          "name": "",
          "type": "address"
        }
      ],
      "stateMutability": "view",
      "type": "function"
    },
    {
      "inputs": [
        {
          "internalType": "address",
          "name": "owner",
          "type": "address"
        },
        {
          "internalType": "address",
          "name": "operator",
          "type": "address"
        }
      ],
      "name": "isApprovedForAll",
      "outputs": [
        {
          "internalType": "bool",
          "name": "",
          "type": "bool"
        }
      ],
      "stateMutability": "view",
      "type": "function"
    },
    {
      "inputs": [
        {
          "internalType": "address",
          "name": "account",
          "type": "address"
        },
        {
          "internalType": "uint256",
          "name": "tokenId",
          "type": "uint256"
        }
      ],
      "name": "isOwnerOf",
      "outputs": [
        {
          "internalType": "bool",
          "name": "",
          "type": "bool"
        }
      ],
      "stateMutability": "view",
      "type": "function"
    },
    {
      "inputs": [
        {
          "internalType": "address",
          "name": "to",
          "type": "address"
        },
        {
          "internalType": "string",
          "name": "metadataURI",
          "type": "string"
        }
      ],
      "name": "mintClone",
      "outputs": [],
      "stateMutability": "nonpayable",
      "type": "function"
    },
    {
      "inputs": [],
      "name": "name",
      "outputs": [
        {
          "internalType": "string",
          "name": "",
          "type": "string"
        }
      ],
      "stateMutability": "view",
      "type": "function"
    },
    {
      "inputs": [],
      "name": "owner",
      "outputs": [
        {
          "internalType": "address",
          "name": "",
          "type": "address"
        }
      ],
      "stateMutability": "view",
      "type": "function"
    },
    {
      "inputs": [
        {
          "internalType": "uint256",
          "name": "tokenId",
          "type": "uint256"
        }
      ],
      "name": "ownerOf",
      "outputs": [
        {
          "internalType": "address",
          "name": "",
          "type": "address"
        }
      ],
      "stateMutability": "view",
      "type": "function"
    },
    {
      "inputs": [],
      "name": "renounceOwnership",
      "outputs": [],
      "stateMutability": "nonpayable",
      "type": "function"
    },
    {
      "inputs": [
        {
          "internalType": "address",
          "name": "from",
          "type": "address"
        },
        {
          "internalType": "address",
          "name": "to",
          "type": "address"
        },
        {
          "internalType": "uint256",
          "name": "tokenId",
          "type": "uint256"
        }
      ],
      "name": "safeTransferFrom",
      "outputs": [],
      "stateMutability": "nonpayable",
      "type": "function"
    },
    {
      "inputs": [
        {
          "internalType": "address",
          "name": "from",
          "type": "address"
        },
        {
          "internalType": "address",
          "name": "to",
          "type": "address"
        },
        {
          "internalType": "uint256",
          "name": "tokenId",
          "type": "uint256"
        },
        {
          "internalType": "bytes",
          "name": "data",
          "type": "bytes"
        }
      ],
      "name": "safeTransferFrom",
      "outputs": [],
      "stateMutability": "nonpayable",
      "type": "function"
    },
    {
      "inputs": [
        {
          "internalType": "address",
          "name": "operator",
          "type": "address"
        },
        {
          "internalType": "bool",
          "name": "approved",
          "type": "bool"
        }
      ],
      "name": "setApprovalForAll",
      "outputs": [],
      "stateMutability": "nonpayable",
      "type": "function"
    },
    {
      "inputs": [
        {
          "internalType": "bytes4",
          "name": "interfaceId",
          "type": "bytes4"
        }
      ],
      "name": "supportsInterface",
      "outputs": [
        {
          "internalType": "bool",
          "name": "",
          "type": "bool"
        }
      ],
      "stateMutability": "view",
      "type": "function"
    },
    {
      "inputs": [],
      "name": "symbol",
      "outputs": [
        {
          "internalType": "string",
          "name": "",
          "type": "string"
        }
      ],
      "stateMutability": "view",
      "type": "function"
    },
    {
      "inputs": [
        {
          "internalType": "uint256",
          "name": "index",
          "type": "uint256"
        }
      ],
      "name": "tokenByIndex",
      "outputs": [
        {
          "internalType": "uint256",
          "name": "",
          "type": "uint256"
        }
      ],
      "stateMutability": "view",
      "type": "function"
    },
    {
      "inputs": [],
      "name": "tokenIdCounter",
      "outputs": [
        {
          "internalType": "uint256",
          "name": "",
          "type": "uint256"
        }
      ],
      "stateMutability": "view",
      "type": "function"
    },
    {
      "inputs": [
        {
          "internalType": "address",
          "name": "owner",
          "type": "address"
        },
        {
          "internalType": "uint256",
          "name": "index",
          "type": "uint256"
        }
      ],
      "name": "tokenOfOwnerByIndex",
      "outputs": [
        {
          "internalType": "uint256",
          "name": "",
          "type": "uint256"
        }
      ],
      "stateMutability": "view",
      "type": "function"
    },
    {
      "inputs": [
        {
          "internalType": "uint256",
          "name": "tokenId",
          "type": "uint256"
        }
      ],
      "name": "tokenURI",
      "outputs": [
        {
          "internalType": "string",
          "name": "",
          "type": "string"
        }
      ],
      "stateMutability": "view",
      "type": "function"
    },
    {
      "inputs": [],
      "name": "totalSupply",
      "outputs": [
        {
          "internalType": "uint256",
          "name": "",
          "type": "uint256"
        }
      ],
      "stateMutability": "view",
      "type": "function"
    },
    {
      "inputs": [
        {
          "internalType": "address",
          "name": "from",
          "type": "address"
        },
        {
          "internalType": "address",
          "name": "to",
          "type": "address"
        },
        {
          "internalType": "uint256",
          "name": "tokenId",
          "type": "uint256"
        }
      ],
      "name": "transferFrom",
      "outputs": [],
      "stateMutability": "nonpayable",
      "type": "function"
    },
    {
      "inputs": [
        {
          "internalType": "address",
          "name": "newOwner",
          "type": "address"
        }
      ],
      "name": "transferOwnership",
      "outputs": [],
      "stateMutability": "nonpayable",
      "type": "function"
    },
    {
      "inputs": [
        {
          "internalType": "uint256",
          "name": "tokenId",
          "type": "uint256"
        },
        {
          "internalType": "string",
          "name": "newMetadataURI",
          "type": "string"
        }
      ],
      "name": "updateMetadata",
      "outputs": [],
      "stateMutability": "nonpayable",
      "type": "function"
    }
  ],
  "bytecode": "0x60806040523480156200001157600080fd5b506040518060400160405280600a81526020017f4149436c6f6e654e4654000000000000000000000000000000000000000000008152506040518060400160405280600781526020017f4149436c6f6e650000000000000000000000000000000000000000000000000081525081600090816200008f91906200041a565b508060019081620000a191906200041a565b505050620000c4620000b8620000d260201b60201c565b620000da60201b60201c565b6001600c8190555062000501565b600033905090565b6000600b60009054906101000a900473ffffffffffffffffffffffffffffffffffffffff16905081600b60006101000a81548173ffffffffffffffffffffffffffffffffffffffff021916908373ffffffffffffffffffffffffffffffffffffffff1602179055508173ffffffffffffffffffffffffffffffffffffffff168173ffffffffffffffffffffffffffffffffffffffff167f8be0079c531659141344cd1fd0a4f28419497f9722a3daafe3b4186f6b6457e060405160405180910390a35050565b600081519050919050565b7f4e487b7100000000000000000000000000000000000000000000000000000000600052604160045260246000fd5b7f4e487b7100000000000000000000000000000000000000000000000000000000600052602260045260246000fd5b600060028204905060018216806200022257607f821691505b602082108103620002385762000237620001da565b5b50919050565b60008190508160005260206000209050919050565b60006020601f8301049050919050565b600082821b905092915050565b600060088302620002a27fffffffffffffffffffffffffffffffffffffffffffffffffffffffffffffffff8262000263565b620002ae868362000263565b95508019841693508086168417925050509392505050565b6000819050919050565b6000819050919050565b6000620002fb620002f5620002ef84620002c6565b620002d0565b620002c6565b9050919050565b6000819050919050565b6200031783620002da565b6200032f620003268262000302565b84845462000270565b825550505050565b600090565b6200034662000337565b620003538184846200030c565b505050565b5b818110156200037b576200036f6000826200033c565b60018101905062000359565b5050565b601f821115620003ca5762000394816200023e565b6200039f8462000253565b81016020851015620003af578190505b620003c7620003be8562000253565b83018262000358565b50505b505050565b600082821c905092915050565b6000620003ef60001984600802620003cf565b1980831691505092915050565b60006200040a8383620003dc565b9150826002028217905092915050565b6200042582620001a0565b67ffffffffffffffff811115620004415762000440620001ab565b5b6200044d825462000209565b6200045a8282856200037f565b600060209050601f8311600181146200049257600084156200047d578287015190505b620004898582620003fc565b865550620004f9565b601f198416620004a2866200023e565b60005b82811015620004cc57848901518255600182019150602085019450602081019050620004a5565b86831015620004ec5784890151620004e8601f891682620003dc565b8355505b6001600288020188555050505b505050505050565b613f9f80620005116000396000f3fe608060405234801561001057600080fd5b506004361061018e5760003560e01c806353c8388e116100de57806398bdf6f511610097578063c5b8f77211610071578063c5b8f77214610493578063c87b56dd146104c3578063e985e9c5146104f3578063f2fde38b146105235761018e565b806398bdf6f51461043d578063a22cb4651461045b578063b88d4fde146104775761018e565b806353c8388e1461037b5780636352211e1461039757806370a08231146103c7578063715018a6146103f75780638da5cb5b1461040157806395d89b411461041f5761018e565b806323b872dd1161014b57806342842e0e1161012557806342842e0e146102e357806342966c68146102ff5780634f558e791461031b5780634f6ccce71461034b5761018e565b806323b872dd146102675780632f745c591461028357806332cd3a5c146102b35761018e565b806301ffc9a71461019357806306fdde03146101c3578063081812fc146101e1578063095ea7b31461021157806318160ddd1461022d578063219a88e91461024b575b600080fd5b6101ad60048036038101906101a8919061296d565b61053f565b6040516101ba91906129b5565b60405180910390f35b6101cb610551565b6040516101d89190612a60565b60405180910390f35b6101fb60048036038101906101f69190612ab8565b6105e3565b6040516102089190612b26565b60405180910390f35b61022b60048036038101906102269190612b6d565b610629565b005b610235610740565b6040516102429190612bbc565b60405180910390f35b61026560048036038101906102609190612d0c565b61074d565b005b610281600480360381019061027c9190612d68565b6107f6565b005b61029d60048036038101906102989190612b6d565b610856565b6040516102aa9190612bbc565b60405180910390f35b6102cd60048036038101906102c89190612ab8565b6108fb565b6040516102da9190612a60565b60405180910390f35b6102fd60048036038101906102f89190612d68565b61099b565b005b61031960048036038101906103149190612ab8565b6109bb565b005b61033560048036038101906103309190612ab8565b610a47565b60405161034291906129b5565b60405180910390f35b61036560048036038101906103609190612ab8565b610a59565b6040516103729190612bbc565b60405180910390f35b61039560048036038101906103909190612dbb565b610aca565b005b6103b160048036038101906103ac9190612ab8565b610b6f565b6040516103be9190612b26565b60405180910390f35b6103e160048036038101906103dc9190612e17565b610bf5565b6040516103ee9190612bbc565b60405180910390f35b6103ff610cac565b005b610409610cc0565b6040516104169190612b26565b60405180910390f35b610427610cea565b6040516104349190612a60565b60405180910390f35b610445610d7c565b6040516104529190612bbc565b60405180910390f35b61047560048036038101906104709190612e70565b610d82565b005b610491600480360381019061048c9190612f51565b610d98565b005b6104ad60048036038101906104a89190612b6d565b610dfa565b6040516104ba91906129b5565b60405180910390f35b6104dd60048036038101906104d89190612ab8565b610e4c565b6040516104ea9190612a60565b60405180910390f35b61050d60048036038101906105089190612fd4565b610e5e565b60405161051a91906129b5565b60405180910390f35b61053d60048036038101906105389190612e17565b610ef2565b005b600061054a82610f75565b9050919050565b60606000805461056090613043565b80601f016020809104026020016040519081016040528092919081815260200182805461058c90613043565b80156105d95780601f106105ae576101008083540402835291602001916105d9565b820191906000526020600020905b8154815290600101906020018083116105bc57829003601f168201915b5050505050905090565b60006105ee82610fef565b6004600083815260200190815260200160002060009054906101000a900473ffffffffffffffffffffffffffffffffffffffff169050919050565b600061063482610b6f565b90508073ffffffffffffffffffffffffffffffffffffffff168373ffffffffffffffffffffffffffffffffffffffff16036106a4576040517f08c379a000000000000000000000000000000000000000000000000000000000815260040161069b906130e6565b60405180910390fd5b8073ffffffffffffffffffffffffffffffffffffffff166106c361103a565b73ffffffffffffffffffffffffffffffffffffffff1614806106f257506106f1816106ec61103a565b610e5e565b5b610731576040517f08c379a000000000000000000000000000000000000000000000000000000000815260040161072890613178565b60405180910390fd5b61073b8383611042565b505050565b6000600980549050905090565b6000600c54905061075e83826110fb565b6107688183611119565b81600d600083815260200190815260200160002090816107889190613344565b50600c600081548092919061079c90613445565b91905055508273ffffffffffffffffffffffffffffffffffffffff167ffe9facaeda7803844b4b343f9e20ad535f18b4e1d9c8c8c4d09414c5abd7224882846040516107e992919061348d565b60405180910390a2505050565b61080761080161103a565b826111bd565b610846576040517f08c379a000000000000000000000000000000000000000000000000000000000815260040161083d9061352f565b60405180910390fd5b610851838383611252565b505050565b600061086183610bf5565b82106108a2576040517f08c379a0000000000000000000000000000000000000000000000000000000008152600401610899906135c1565b60405180910390fd5b600760008473ffffffffffffffffffffffffffffffffffffffff1673ffffffffffffffffffffffffffffffffffffffff168152602001908152602001600020600083815260200190815260200160002054905092915050565b600d602052806000526040600020600091509050805461091a90613043565b80601f016020809104026020016040519081016040528092919081815260200182805461094690613043565b80156109935780601f1061096857610100808354040283529160200191610993565b820191906000526020600020905b81548152906001019060200180831161097657829003601f168201915b505050505081565b6109b683838360405180602001604052806000815250610d98565b505050565b6109c533826111bd565b610a04576040517f08c379a00000000000000000000000000000000000000000000000000000000081526004016109fb9061362d565b60405180910390fd5b610a0d8161154b565b7f1ae5a58ec511f731846c96cfc14ec16356f71cf089336010e27ca5173b985c8f81604051610a3c9190612bbc565b60405180910390a150565b6000610a5282611576565b9050919050565b6000610a63610740565b8210610aa4576040517f08c379a0000000000000000000000000000000000000000000000000000000008152600401610a9b906136bf565b60405180910390fd5b60098281548110610ab857610ab76136df565b5b90600052602060002001549050919050565b3373ffffffffffffffffffffffffffffffffffffffff16610aea83610b6f565b73ffffffffffffffffffffffffffffffffffffffff1614610b40576040517f08c379a0000000000000000000000000000000000000000000000000000000008152600401610b379061375a565b60405180910390fd5b610b4a8282611119565b80600d60008481526020019081526020016000209081610b6a9190613344565b505050565b600080610b7b836115b7565b9050600073ffffffffffffffffffffffffffffffffffffffff168173ffffffffffffffffffffffffffffffffffffffff1603610bec576040517f08c379a0000000000000000000000000000000000000000000000000000000008152600401610be3906137c6565b60405180910390fd5b80915050919050565b60008073ffffffffffffffffffffffffffffffffffffffff168273ffffffffffffffffffffffffffffffffffffffff1603610c65576040517f08c379a0000000000000000000000000000000000000000000000000000000008152600401610c5c90613858565b60405180910390fd5b600360008373ffffffffffffffffffffffffffffffffffffffff1673ffffffffffffffffffffffffffffffffffffffff168152602001908152602001600020549050919050565b610cb46115f4565b610cbe6000611672565b565b6000600b60009054906101000a900473ffffffffffffffffffffffffffffffffffffffff16905090565b606060018054610cf990613043565b80601f0160208091040260200160405190810160405280929190818152602001828054610d2590613043565b8015610d725780601f10610d4757610100808354040283529160200191610d72565b820191906000526020600020905b815481529060010190602001808311610d5557829003601f168201915b5050505050905090565b600c5481565b610d94610d8d61103a565b8383611738565b5050565b610da9610da361103a565b836111bd565b610de8576040517f08c379a0000000000000000000000000000000000000000000000000000000008152600401610ddf9061352f565b60405180910390fd5b610df4848484846118a4565b50505050565b6000610e0582610a47565b8015610e4457508273ffffffffffffffffffffffffffffffffffffffff16610e2c83610b6f565b73ffffffffffffffffffffffffffffffffffffffff16145b905092915050565b6060610e5782611900565b9050919050565b6000600560008473ffffffffffffffffffffffffffffffffffffffff1673ffffffffffffffffffffffffffffffffffffffff16815260200190815260200160002060008373ffffffffffffffffffffffffffffffffffffffff1673ffffffffffffffffffffffffffffffffffffffff16815260200190815260200160002060009054906101000a900460ff16905092915050565b610efa6115f4565b600073ffffffffffffffffffffffffffffffffffffffff168173ffffffffffffffffffffffffffffffffffffffff1603610f69576040517f08c379a0000000000000000000000000000000000000000000000000000000008152600401610f60906138ea565b60405180910390fd5b610f7281611672565b50565b60007f780e9d63000000000000000000000000000000000000000000000000000000007bffffffffffffffffffffffffffffffffffffffffffffffffffffffff1916827bffffffffffffffffffffffffffffffffffffffffffffffffffffffff19161480610fe85750610fe782611a12565b5b9050919050565b610ff881611576565b611037576040517f08c379a000000000000000000000000000000000000000000000000000000000815260040161102e906137c6565b60405180910390fd5b50565b600033905090565b816004600083815260200190815260200160002060006101000a81548173ffffffffffffffffffffffffffffffffffffffff021916908373ffffffffffffffffffffffffffffffffffffffff160217905550808273ffffffffffffffffffffffffffffffffffffffff166110b583610b6f565b73ffffffffffffffffffffffffffffffffffffffff167f8c5be1e5ebec7d5bd14f71427d1e84f3dd0314c0f7b2291e5b200ac8c7c3b92560405160405180910390a45050565b611115828260405180602001604052806000815250611a73565b5050565b61112282611576565b611161576040517f08c379a00000000000000000000000000000000000000000000000000000000081526004016111589061397c565b60405180910390fd5b806006600084815260200190815260200160002090816111819190613344565b507ff8e1a15aba9398e019f0b49df1a4fde98ee17ae345cb5f6b5e2c27f5033e8ce7826040516111b19190612bbc565b60405180910390a15050565b6000806111c983610b6f565b90508073ffffffffffffffffffffffffffffffffffffffff168473ffffffffffffffffffffffffffffffffffffffff16148061120b575061120a8185610e5e565b5b8061124957508373ffffffffffffffffffffffffffffffffffffffff16611231846105e3565b73ffffffffffffffffffffffffffffffffffffffff16145b91505092915050565b8273ffffffffffffffffffffffffffffffffffffffff1661127282610b6f565b73ffffffffffffffffffffffffffffffffffffffff16146112c8576040517f08c379a00000000000000000000000000000000000000000000000000000000081526004016112bf90613a0e565b60405180910390fd5b600073ffffffffffffffffffffffffffffffffffffffff168273ffffffffffffffffffffffffffffffffffffffff1603611337576040517f08c379a000000000000000000000000000000000000000000000000000000000815260040161132e90613aa0565b60405180910390fd5b6113448383836001611ace565b8273ffffffffffffffffffffffffffffffffffffffff1661136482610b6f565b73ffffffffffffffffffffffffffffffffffffffff16146113ba576040517f08c379a00000000000000000000000000000000000000000000000000000000081526004016113b190613a0e565b60405180910390fd5b6004600082815260200190815260200160002060006101000a81549073ffffffffffffffffffffffffffffffffffffffff02191690556001600360008573ffffffffffffffffffffffffffffffffffffffff1673ffffffffffffffffffffffffffffffffffffffff168152602001908152602001600020600082825403925050819055506001600360008473ffffffffffffffffffffffffffffffffffffffff1673ffffffffffffffffffffffffffffffffffffffff16815260200190815260200160002060008282540192505081905550816002600083815260200190815260200160002060006101000a81548173ffffffffffffffffffffffffffffffffffffffff021916908373ffffffffffffffffffffffffffffffffffffffff160217905550808273ffffffffffffffffffffffffffffffffffffffff168473ffffffffffffffffffffffffffffffffffffffff167fddf252ad1be2c89b69c2b068fc378daa952ba7f163c4a11628f55a4df523b3ef60405160405180910390a46115468383836001611ae0565b505050565b61155481611ae6565b600d6000828152602001908152602001600020600061157391906128a4565b50565b60008073ffffffffffffffffffffffffffffffffffffffff16611598836115b7565b73ffffffffffffffffffffffffffffffffffffffff1614159050919050565b60006002600083815260200190815260200160002060009054906101000a900473ffffffffffffffffffffffffffffffffffffffff169050919050565b6115fc61103a565b73ffffffffffffffffffffffffffffffffffffffff1661161a610cc0565b73ffffffffffffffffffffffffffffffffffffffff1614611670576040517f08c379a000000000000000000000000000000000000000000000000000000000815260040161166790613b0c565b60405180910390fd5b565b6000600b60009054906101000a900473ffffffffffffffffffffffffffffffffffffffff16905081600b60006101000a81548173ffffffffffffffffffffffffffffffffffffffff021916908373ffffffffffffffffffffffffffffffffffffffff1602179055508173ffffffffffffffffffffffffffffffffffffffff168173ffffffffffffffffffffffffffffffffffffffff167f8be0079c531659141344cd1fd0a4f28419497f9722a3daafe3b4186f6b6457e060405160405180910390a35050565b8173ffffffffffffffffffffffffffffffffffffffff168373ffffffffffffffffffffffffffffffffffffffff16036117a6576040517f08c379a000000000000000000000000000000000000000000000000000000000815260040161179d90613b78565b60405180910390fd5b80600560008573ffffffffffffffffffffffffffffffffffffffff1673ffffffffffffffffffffffffffffffffffffffff16815260200190815260200160002060008473ffffffffffffffffffffffffffffffffffffffff1673ffffffffffffffffffffffffffffffffffffffff16815260200190815260200160002060006101000a81548160ff0219169083151502179055508173ffffffffffffffffffffffffffffffffffffffff168373ffffffffffffffffffffffffffffffffffffffff167f17307eab39ab6107e8899845ad3d59bd9653f200f220920489ca2b5937696c318360405161189791906129b5565b60405180910390a3505050565b6118af848484611252565b6118bb84848484611b39565b6118fa576040517f08c379a00000000000000000000000000000000000000000000000000000000081526004016118f190613c0a565b60405180910390fd5b50505050565b606061190b82610fef565b600060066000848152602001908152602001600020805461192b90613043565b80601f016020809104026020016040519081016040528092919081815260200182805461195790613043565b80156119a45780601f10611979576101008083540402835291602001916119a4565b820191906000526020600020905b81548152906001019060200180831161198757829003601f168201915b5050505050905060006119b5611cc0565b905060008151036119ca578192505050611a0d565b6000825111156119ff5780826040516020016119e7929190613c66565b60405160208183030381529060405292505050611a0d565b611a0884611cd7565b925050505b919050565b6000634906490660e01b7bffffffffffffffffffffffffffffffffffffffffffffffffffffffff1916827bffffffffffffffffffffffffffffffffffffffffffffffffffffffff19161480611a6c5750611a6b82611d3f565b5b9050919050565b611a7d8383611e21565b611a8a6000848484611b39565b611ac9576040517f08c379a0000000000000000000000000000000000000000000000000000000008152600401611ac090613c0a565b60405180910390fd5b505050565b611ada8484848461203e565b50505050565b50505050565b611aef8161219c565b6000600660008381526020019081526020016000208054611b0f90613043565b905014611b3657600660008281526020019081526020016000206000611b3591906128a4565b5b50565b6000611b5a8473ffffffffffffffffffffffffffffffffffffffff166122ea565b15611cb3578373ffffffffffffffffffffffffffffffffffffffff1663150b7a02611b8361103a565b8786866040518563ffffffff1660e01b8152600401611ba59493929190613cdf565b6020604051808303816000875af1925050508015611be157506040513d601f19601f82011682018060405250810190611bde9190613d40565b60015b611c63573d8060008114611c11576040519150601f19603f3d011682016040523d82523d6000602084013e611c16565b606091505b506000815103611c5b576040517f08c379a0000000000000000000000000000000000000000000000000000000008152600401611c5290613c0a565b60405180910390fd5b805181602001fd5b63150b7a0260e01b7bffffffffffffffffffffffffffffffffffffffffffffffffffffffff1916817bffffffffffffffffffffffffffffffffffffffffffffffffffffffff191614915050611cb8565b600190505b949350505050565b606060405180602001604052806000815250905090565b6060611ce282610fef565b6000611cec611cc0565b90506000815111611d0c5760405180602001604052806000815250611d37565b80611d168461230d565b604051602001611d27929190613c66565b6040516020818303038152906040525b915050919050565b60007f80ac58cd000000000000000000000000000000000000000000000000000000007bffffffffffffffffffffffffffffffffffffffffffffffffffffffff1916827bffffffffffffffffffffffffffffffffffffffffffffffffffffffff19161480611e0a57507f5b5e139f000000000000000000000000000000000000000000000000000000007bffffffffffffffffffffffffffffffffffffffffffffffffffffffff1916827bffffffffffffffffffffffffffffffffffffffffffffffffffffffff1916145b80611e1a5750611e19826123db565b5b9050919050565b600073ffffffffffffffffffffffffffffffffffffffff168273ffffffffffffffffffffffffffffffffffffffff1603611e90576040517f08c379a0000000000000000000000000000000000000000000000000000000008152600401611e8790613db9565b60405180910390fd5b611e9981611576565b15611ed9576040517f08c379a0000000000000000000000000000000000000000000000000000000008152600401611ed090613e25565b60405180910390fd5b611ee7600083836001611ace565b611ef081611576565b15611f30576040517f08c379a0000000000000000000000000000000000000000000000000000000008152600401611f2790613e25565b60405180910390fd5b6001600360008473ffffffffffffffffffffffffffffffffffffffff1673ffffffffffffffffffffffffffffffffffffffff16815260200190815260200160002060008282540192505081905550816002600083815260200190815260200160002060006101000a81548173ffffffffffffffffffffffffffffffffffffffff021916908373ffffffffffffffffffffffffffffffffffffffff160217905550808273ffffffffffffffffffffffffffffffffffffffff16600073ffffffffffffffffffffffffffffffffffffffff167fddf252ad1be2c89b69c2b068fc378daa952ba7f163c4a11628f55a4df523b3ef60405160405180910390a461203a600083836001611ae0565b5050565b61204a84848484612445565b600181111561208e576040517f08c379a000000000000000000000000000000000000000000000000000000000815260040161208590613eb7565b60405180910390fd5b6000829050600073ffffffffffffffffffffffffffffffffffffffff168573ffffffffffffffffffffffffffffffffffffffff16036120d5576120d08161244b565b612114565b8373ffffffffffffffffffffffffffffffffffffffff168573ffffffffffffffffffffffffffffffffffffffff1614612113576121128582612494565b5b5b600073ffffffffffffffffffffffffffffffffffffffff168473ffffffffffffffffffffffffffffffffffffffff16036121565761215181612601565b612195565b8473ffffffffffffffffffffffffffffffffffffffff168473ffffffffffffffffffffffffffffffffffffffff16146121945761219384826126d2565b5b5b5050505050565b60006121a782610b6f565b90506121b7816000846001611ace565b6121c082610b6f565b90506004600083815260200190815260200160002060006101000a81549073ffffffffffffffffffffffffffffffffffffffff02191690556001600360008373ffffffffffffffffffffffffffffffffffffffff1673ffffffffffffffffffffffffffffffffffffffff168152602001908152602001600020600082825403925050819055506002600083815260200190815260200160002060006101000a81549073ffffffffffffffffffffffffffffffffffffffff021916905581600073ffffffffffffffffffffffffffffffffffffffff168273ffffffffffffffffffffffffffffffffffffffff167fddf252ad1be2c89b69c2b068fc378daa952ba7f163c4a11628f55a4df523b3ef60405160405180910390a46122e6816000846001611ae0565b5050565b6000808273ffffffffffffffffffffffffffffffffffffffff163b119050919050565b60606000600161231c84612751565b01905060008167ffffffffffffffff81111561233b5761233a612be1565b5b6040519080825280601f01601f19166020018201604052801561236d5781602001600182028036833780820191505090505b509050600082602001820190505b6001156123d0578080600190039150507f3031323334353637383961626364656600000000000000000000000000000000600a86061a8153600a85816123c4576123c3613ed7565b5b0494506000850361237b575b819350505050919050565b60007f01ffc9a7000000000000000000000000000000000000000000000000000000007bffffffffffffffffffffffffffffffffffffffffffffffffffffffff1916827bffffffffffffffffffffffffffffffffffffffffffffffffffffffff1916149050919050565b50505050565b600980549050600a600083815260200190815260200160002081905550600981908060018154018082558091505060019003906000526020600020016000909190919091505550565b600060016124a184610bf5565b6124ab9190613f06565b9050600060086000848152602001908152602001600020549050818114612590576000600760008673ffffffffffffffffffffffffffffffffffffffff1673ffffffffffffffffffffffffffffffffffffffff168152602001908152602001600020600084815260200190815260200160002054905080600760008773ffffffffffffffffffffffffffffffffffffffff1673ffffffffffffffffffffffffffffffffffffffff168152602001908152602001600020600084815260200190815260200160002081905550816008600083815260200190815260200160002081905550505b6008600084815260200190815260200160002060009055600760008573ffffffffffffffffffffffffffffffffffffffff1673ffffffffffffffffffffffffffffffffffffffff16815260200190815260200160002060008381526020019081526020016000206000905550505050565b600060016009805490506126159190613f06565b90506000600a6000848152602001908152602001600020549050600060098381548110612645576126446136df565b5b906000526020600020015490508060098381548110612667576126666136df565b5b906000526020600020018190555081600a600083815260200190815260200160002081905550600a60008581526020019081526020016000206000905560098054806126b6576126b5613f3a565b5b6001900381819060005260206000200160009055905550505050565b60006126dd83610bf5565b905081600760008573ffffffffffffffffffffffffffffffffffffffff1673ffffffffffffffffffffffffffffffffffffffff168152602001908152602001600020600083815260200190815260200160002081905550806008600084815260200190815260200160002081905550505050565b600080600090507a184f03e93ff9f4daa797ed6e38ed64bf6a1f01000000000000000083106127af577a184f03e93ff9f4daa797ed6e38ed64bf6a1f01000000000000000083816127a5576127a4613ed7565b5b0492506040810190505b6d04ee2d6d415b85acef810000000083106127ec576d04ee2d6d415b85acef810000000083816127e2576127e1613ed7565b5b0492506020810190505b662386f26fc10000831061281b57662386f26fc10000838161281157612810613ed7565b5b0492506010810190505b6305f5e1008310612844576305f5e100838161283a57612839613ed7565b5b0492506008810190505b612710831061286957612710838161285f5761285e613ed7565b5b0492506004810190505b6064831061288c576064838161288257612881613ed7565b5b0492506002810190505b600a831061289b576001810190505b80915050919050565b5080546128b090613043565b6000825580601f106128c257506128e1565b601f0160209004906000526020600020908101906128e091906128e4565b5b50565b5b808211156128fd5760008160009055506001016128e5565b5090565b6000604051905090565b600080fd5b600080fd5b60007fffffffff0000000000000000000000000000000000000000000000000000000082169050919050565b61294a81612915565b811461295557600080fd5b50565b60008135905061296781612941565b92915050565b6000602082840312156129835761298261290b565b5b600061299184828501612958565b91505092915050565b60008115159050919050565b6129af8161299a565b82525050565b60006020820190506129ca60008301846129a6565b92915050565b600081519050919050565b600082825260208201905092915050565b60005b83811015612a0a5780820151818401526020810190506129ef565b60008484015250505050565b6000601f19601f8301169050919050565b6000612a32826129d0565b612a3c81856129db565b9350612a4c8185602086016129ec565b612a5581612a16565b840191505092915050565b60006020820190508181036000830152612a7a8184612a27565b905092915050565b6000819050919050565b612a9581612a82565b8114612aa057600080fd5b50565b600081359050612ab281612a8c565b92915050565b600060208284031215612ace57612acd61290b565b5b6000612adc84828501612aa3565b91505092915050565b600073ffffffffffffffffffffffffffffffffffffffff82169050919050565b6000612b1082612ae5565b9050919050565b612b2081612b05565b82525050565b6000602082019050612b3b6000830184612b17565b92915050565b612b4a81612b05565b8114612b5557600080fd5b50565b600081359050612b6781612b41565b92915050565b60008060408385031215612b8457612b8361290b565b5b6000612b9285828601612b58565b9250506020612ba385828601612aa3565b9150509250929050565b612bb681612a82565b82525050565b6000602082019050612bd16000830184612bad565b92915050565b600080fd5b600080fd5b7f4e487b7100000000000000000000000000000000000000000000000000000000600052604160045260246000fd5b612c1982612a16565b810181811067ffffffffffffffff82111715612c3857612c37612be1565b5b80604052505050565b6000612c4b612901565b9050612c578282612c10565b919050565b600067ffffffffffffffff821115612c7757612c76612be1565b5b612c8082612a16565b9050602081019050919050565b82818337600083830152505050565b6000612caf612caa84612c5c565b612c41565b905082815260208101848484011115612ccb57612cca612bdc565b5b612cd6848285612c8d565b509392505050565b600082601f830112612cf357612cf2612bd7565b5b8135612d03848260208601612c9c565b91505092915050565b60008060408385031215612d2357612d2261290b565b5b6000612d3185828601612b58565b925050602083013567ffffffffffffffff811115612d5257612d51612910565b5b612d5e85828601612cde565b9150509250929050565b600080600060608486031215612d8157612d8061290b565b5b6000612d8f86828701612b58565b9350506020612da086828701612b58565b9250506040612db186828701612aa3565b9150509250925092565b60008060408385031215612dd257612dd161290b565b5b6000612de085828601612aa3565b925050602083013567ffffffffffffffff811115612e0157612e00612910565b5b612e0d85828601612cde565b9150509250929050565b600060208284031215612e2d57612e2c61290b565b5b6000612e3b84828501612b58565b91505092915050565b612e4d8161299a565b8114612e5857600080fd5b50565b600081359050612e6a81612e44565b92915050565b60008060408385031215612e8757612e8661290b565b5b6000612e9585828601612b58565b9250506020612ea685828601612e5b565b9150509250929050565b600067ffffffffffffffff821115612ecb57612eca612be1565b5b612ed482612a16565b9050602081019050919050565b6000612ef4612eef84612eb0565b612c41565b905082815260208101848484011115612f1057612f0f612bdc565b5b612f1b848285612c8d565b509392505050565b600082601f830112612f3857612f37612bd7565b5b8135612f48848260208601612ee1565b91505092915050565b60008060008060808587031215612f6b57612f6a61290b565b5b6000612f7987828801612b58565b9450506020612f8a87828801612b58565b9350506040612f9b87828801612aa3565b925050606085013567ffffffffffffffff811115612fbc57612fbb612910565b5b612fc887828801612f23565b91505092959194509250565b60008060408385031215612feb57612fea61290b565b5b6000612ff985828601612b58565b925050602061300a85828601612b58565b9150509250929050565b7f4e487b7100000000000000000000000000000000000000000000000000000000600052602260045260246000fd5b6000600282049050600182168061305b57607f821691505b60208210810361306e5761306d613014565b5b50919050565b7f4552433732313a20617070726f76616c20746f2063757272656e74206f776e6560008201527f7200000000000000000000000000000000000000000000000000000000000000602082015250565b60006130d06021836129db565b91506130db82613074565b604082019050919050565b600060208201905081810360008301526130ff816130c3565b9050919050565b7f4552433732313a20617070726f76652063616c6c6572206973206e6f7420746f60008201527f6b656e206f776e6572206f7220617070726f76656420666f7220616c6c000000602082015250565b6000613162603d836129db565b915061316d82613106565b604082019050919050565b6000602082019050818103600083015261319181613155565b9050919050565b60008190508160005260206000209050919050565b60006020601f8301049050919050565b600082821b905092915050565b6000600883026131fa7fffffffffffffffffffffffffffffffffffffffffffffffffffffffffffffffff826131bd565b61320486836131bd565b95508019841693508086168417925050509392505050565b6000819050919050565b600061324161323c61323784612a82565b61321c565b612a82565b9050919050565b6000819050919050565b61325b83613226565b61326f61326782613248565b8484546131ca565b825550505050565b600090565b613284613277565b61328f818484613252565b505050565b5b818110156132b3576132a860008261327c565b600181019050613295565b5050565b601f8211156132f8576132c981613198565b6132d2846131ad565b810160208510156132e1578190505b6132f56132ed856131ad565b830182613294565b50505b505050565b600082821c905092915050565b600061331b600019846008026132fd565b1980831691505092915050565b6000613334838361330a565b9150826002028217905092915050565b61334d826129d0565b67ffffffffffffffff81111561336657613365612be1565b5b6133708254613043565b61337b8282856132b7565b600060209050601f8311600181146133ae576000841561339c578287015190505b6133a68582613328565b86555061340e565b601f1984166133bc86613198565b60005b828110156133e4578489015182556001820191506020850194506020810190506133bf565b8683101561340157848901516133fd601f89168261330a565b8355505b6001600288020188555050505b505050505050565b7f4e487b7100000000000000000000000000000000000000000000000000000000600052601160045260246000fd5b600061345082612a82565b91507fffffffffffffffffffffffffffffffffffffffffffffffffffffffffffffffff820361348257613481613416565b5b600182019050919050565b60006040820190506134a26000830185612bad565b81810360208301526134b48184612a27565b90509392505050565b7f4552433732313a2063616c6c6572206973206e6f7420746f6b656e206f776e6560008201527f72206f7220617070726f76656400000000000000000000000000000000000000602082015250565b6000613519602d836129db565b9150613524826134bd565b604082019050919050565b600060208201905081810360008301526135488161350c565b9050919050565b7f455243373231456e756d657261626c653a206f776e657220696e646578206f7560008201527f74206f6620626f756e6473000000000000000000000000000000000000000000602082015250565b60006135ab602b836129db565b91506135b68261354f565b604082019050919050565b600060208201905081810360008301526135da8161359e565b9050919050565b7f4e6f74206f776e6572206e6f7220617070726f76656400000000000000000000600082015250565b60006136176016836129db565b9150613622826135e1565b602082019050919050565b600060208201905081810360008301526136468161360a565b9050919050565b7f455243373231456e756d657261626c653a20676c6f62616c20696e646578206f60008201527f7574206f6620626f756e64730000000000000000000000000000000000000000602082015250565b60006136a9602c836129db565b91506136b48261364d565b604082019050919050565b600060208201905081810360008301526136d88161369c565b9050919050565b7f4e487b7100000000000000000000000000000000000000000000000000000000600052603260045260246000fd5b7f4e6f74206f776e65720000000000000000000000000000000000000000000000600082015250565b60006137446009836129db565b915061374f8261370e565b602082019050919050565b6000602082019050818103600083015261377381613737565b9050919050565b7f4552433732313a20696e76616c696420746f6b656e2049440000000000000000600082015250565b60006137b06018836129db565b91506137bb8261377a565b602082019050919050565b600060208201905081810360008301526137df816137a3565b9050919050565b7f4552433732313a2061646472657373207a65726f206973206e6f74206120766160008201527f6c6964206f776e65720000000000000000000000000000000000000000000000602082015250565b60006138426029836129db565b915061384d826137e6565b604082019050919050565b6000602082019050818103600083015261387181613835565b9050919050565b7f4f776e61626c653a206e6577206f776e657220697320746865207a65726f206160008201527f6464726573730000000000000000000000000000000000000000000000000000602082015250565b60006138d46026836129db565b91506138df82613878565b604082019050919050565b60006020820190508181036000830152613903816138c7565b9050919050565b7f45524337323155524953746f726167653a2055524920736574206f66206e6f6e60008201527f6578697374656e7420746f6b656e000000000000000000000000000000000000602082015250565b6000613966602e836129db565b91506139718261390a565b604082019050919050565b6000602082019050818103600083015261399581613959565b9050919050565b7f4552433732313a207472616e736665722066726f6d20696e636f72726563742060008201527f6f776e6572000000000000000000000000000000000000000000000000000000602082015250565b60006139f86025836129db565b9150613a038261399c565b604082019050919050565b60006020820190508181036000830152613a27816139eb565b9050919050565b7f4552433732313a207472616e7366657220746f20746865207a65726f2061646460008201527f7265737300000000000000000000000000000000000000000000000000000000602082015250565b6000613a8a6024836129db565b9150613a9582613a2e565b604082019050919050565b60006020820190508181036000830152613ab981613a7d565b9050919050565b7f4f776e61626c653a2063616c6c6572206973206e6f7420746865206f776e6572600082015250565b6000613af66020836129db565b9150613b0182613ac0565b602082019050919050565b60006020820190508181036000830152613b2581613ae9565b9050919050565b7f4552433732313a20617070726f766520746f2063616c6c657200000000000000600082015250565b6000613b626019836129db565b9150613b6d82613b2c565b602082019050919050565b60006020820190508181036000830152613b9181613b55565b9050919050565b7f4552433732313a207472616e7366657220746f206e6f6e20455243373231526560008201527f63656976657220696d706c656d656e7465720000000000000000000000000000602082015250565b6000613bf46032836129db565b9150613bff82613b98565b604082019050919050565b60006020820190508181036000830152613c2381613be7565b9050919050565b600081905092915050565b6000613c40826129d0565b613c4a8185613c2a565b9350613c5a8185602086016129ec565b80840191505092915050565b6000613c728285613c35565b9150613c7e8284613c35565b91508190509392505050565b600081519050919050565b600082825260208201905092915050565b6000613cb182613c8a565b613cbb8185613c95565b9350613ccb8185602086016129ec565b613cd481612a16565b840191505092915050565b6000608082019050613cf46000830187612b17565b613d016020830186612b17565b613d0e6040830185612bad565b8181036060830152613d208184613ca6565b905095945050505050565b600081519050613d3a81612941565b92915050565b600060208284031215613d5657613d5561290b565b5b6000613d6484828501613d2b565b91505092915050565b7f4552433732313a206d696e7420746f20746865207a65726f2061646472657373600082015250565b6000613da36020836129db565b9150613dae82613d6d565b602082019050919050565b60006020820190508181036000830152613dd281613d96565b9050919050565b7f4552433732313a20746f6b656e20616c7265616479206d696e74656400000000600082015250565b6000613e0f601c836129db565b9150613e1a82613dd9565b602082019050919050565b60006020820190508181036000830152613e3e81613e02565b9050919050565b7f455243373231456e756d657261626c653a20636f6e736563757469766520747260008201527f616e7366657273206e6f7420737570706f727465640000000000000000000000602082015250565b6000613ea16035836129db565b9150613eac82613e45565b604082019050919050565b60006020820190508181036000830152613ed081613e94565b9050919050565b7f4e487b7100000000000000000000000000000000000000000000000000000000600052601260045260246000fd5b6000613f1182612a82565b9150613f1c83612a82565b9250828203905081811115613f3457613f33613416565b5b92915050565b7f4e487b7100000000000000000000000000000000000000000000000000000000600052603160045260246000fdfea2646970667358221220d67f9e17d62fe221cab3bfc9d79a5a73a273409250333af391cf95647340c1bb64736f6c63430008140033",
  "linkReferences": {},
  "deployedLinkReferences": {}
}