{
  "_format": "hh-sol-artifact-1",
  "contractName": "CloneNFT",
  "sourceName": "contracts/CloneNFT.sol",
  "abi": [
    {
      "inputs": [
        {
          "internalType": "address",
          "name": "_monadVerifier",
          "type": "address"
        }
      ],
      "stateMutability": "nonpayable",
      "type": "constructor"
    },
    {
      "anonymous": false,
      "inputs": [
        {
          "indexed": true,
          "internalType": "address",
          "name": "owner",
          "type": "address"
        },
        {
          "indexed": true,
          "internalType": "address",
          "name": "approved",
          "type": "address"
        },
        {
          "indexed": true,
          "internalType": "uint256",
          "name": "tokenId",
          "type": "uint256"
        }
      ],
      "name": "Approval",
      "type": "event"
    },
    {
      "anonymous": false,
      "inputs": [
        {
          "indexed": true,
          "internalType": "address",
          "name": "owner",
          "type": "address"
        },
        {
          "indexed": true,
          "internalType": "address",
          "name": "operator",
          "type": "address"
        },
        {
          "indexed": false,
          "internalType": "bool",
          "name": "approved",
          "type": "bool"
        }
      ],
      "name": "ApprovalForAll",
      "type": "event"
    },
    {
      "anonymous": false,
      "inputs": [
        {
          "indexed": true,
          "internalType": "address",
          "name": "owner",
          "type": "address"
        },
        {
          "indexed": false,
          "internalType": "uint256",
          "name": "tokenId",
          "type": "uint256"
        },
        {
          "indexed": false,
          "internalType": "string",
          "name": "modelHash",
          "type": "string"
        }
      ],
      "name": "CloneMinted",
      "type": "event"
    },
    {
      "anonymous": false,
      "inputs": [
        {
          "indexed": true,
          "internalType": "bytes32",
          "name": "inferenceId",
          "type": "bytes32"
        },
        {
          "indexed": false,
          "internalType": "uint256",
          "name": "tokenId",
          "type": "uint256"
        }
      ],
      "name": "InferenceVerified",
      "type": "event"
    },
    {
      "anonymous": false,
      "inputs": [
        {
          "indexed": false,
          "internalType": "uint256",
          "name": "tokenId",
          "type": "uint256"
        },
        {
          "indexed": false,
          "internalType": "bool",
          "name": "newStatus",
          "type": "bool"
        }
      ],
      "name": "LicenseUpdated",
      "type": "event"
    },
    {
      "anonymous": false,
      "inputs": [
        {
          "indexed": true,
          "internalType": "address",
          "name": "from",
          "type": "address"
        },
        {
          "indexed": true,
          "internalType": "address",
          "name": "to",
          "type": "address"
        },
        {
          "indexed": true,
          "internalType": "uint256",
          "name": "tokenId",
          "type": "uint256"
        }
      ],
      "name": "Transfer",
      "type": "event"
    },
    {
      "inputs": [
        {
          "internalType": "address",
          "name": "to",
          "type": "address"
        },
        {
          "internalType": "uint256",
          "name": "tokenId",
          "type": "uint256"
        }
      ],
      "name": "approve",
      "outputs": [],
      "stateMutability": "nonpayable",
      "type": "function"
    },
    {
      "inputs": [
        {
          "internalType": "address",
          "name": "owner",
          "type": "address"
        }
      ],
      "name": "balanceOf",
      "outputs": [
        {
          "internalType": "uint256",
          "name": "",
          "type": "uint256"
        }
      ],
      "stateMutability": "view",
      "type": "function"
    },
    {
      "inputs": [
        {
          "internalType": "string[]",
          "name": "names",
          "type": "string[]"
        },
        {
          "internalType": "string[]",
          "name": "roles",
          "type": "string[]"
        },
        {
          "internalType": "string[]",
          "name": "modelHashes",
          "type": "string[]"
        },
        {
          "internalType": "bool[]",
          "name": "licenseStatuses",
          "type": "bool[]"
        }
      ],
      "name": "batchMintClones",
      "outputs": [],
      "stateMutability": "nonpayable",
      "type": "function"
    },
    {
      "inputs": [
        {
          "internalType": "uint256",
          "name": "",
          "type": "uint256"
        }
      ],
      "name": "cloneData",
      "outputs": [
        {
          "internalType": "string",
          "name": "name",
          "type": "string"
        },
        {
          "internalType": "string",
          "name": "role",
          "type": "string"
        },
        {
          "internalType": "address",
          "name": "ownerWallet",
          "type": "address"
        },
        {
          "internalType": "string",
          "name": "modelHash",
          "type": "string"
        },
        {
          "internalType": "bool",
          "name": "licenseEnabled",
          "type": "bool"
        },
        {
          "internalType": "uint256",
          "name": "creationTimestamp",
          "type": "uint256"
        }
      ],
      "stateMutability": "view",
      "type": "function"
    },
    {
      "inputs": [
        {
          "internalType": "address",
          "name": "user",
          "type": "address"
        }
      ],
      "name": "getAllModelsByUser",
      "outputs": [
        {
          "internalType": "uint256[]",
          "name": "",
          "type": "uint256[]"
        },
        {
          "internalType": "string[]",
          "name": "",
          "type": "string[]"
        },
        {
          "internalType": "bool[]",
          "name": "",
          "type": "bool[]"
        }
      ],
      "stateMutability": "view",
      "type": "function"
    },
    {
      "inputs": [
        {
          "internalType": "uint256",
          "name": "tokenId",
          "type": "uint256"
        }
      ],
      "name": "getApproved",
      "outputs": [
        {
          "internalType": "address",
          "name": "",
          "type": "address"
        }
      ],
      "stateMutability": "view",
      "type": "function"
    },
    {
      "inputs": [
        {
          "internalType": "uint256",
          "name": "tokenId",
          "type": "uint256"
        }
      ],
      "name": "getCloneMetadata",
      "outputs": [
        {
          "internalType": "string",
          "name": "",
          "type": "string"
        },
        {
          "internalType": "string",
          "name": "",
          "type": "string"
        },
        {
          "internalType": "address",
          "name": "",
          "type": "address"
        },
        {
          "internalType": "string",
          "name": "",
          "type": "string"
        },
        {
          "internalType": "bool",
          "name": "",
          "type": "bool"
        },
        {
          "internalType": "uint256",
          "name": "",
          "type": "uint256"
        }
      ],
      "stateMutability": "view",
      "type": "function"
    },
    {
      "inputs": [
        {
          "internalType": "address",
          "name": "owner",
          "type": "address"
        },
        {
          "internalType": "address",
          "name": "operator",
          "type": "address"
        }
      ],
      "name": "isApprovedForAll",
      "outputs": [
        {
          "internalType": "bool",
          "name": "",
          "type": "bool"
        }
      ],
      "stateMutability": "view",
      "type": "function"
    },
    {
      "inputs": [
        {
          "internalType": "string",
          "name": "name",
          "type": "string"
        },
        {
          "internalType": "string",
          "name": "role",
          "type": "string"
        },
        {
          "internalType": "string",
          "name": "modelHash",
          "type": "string"
        },
        {
          "internalType": "bool",
          "name": "licenseEnabled",
          "type": "bool"
        }
      ],
      "name": "mintClone",
      "outputs": [],
      "stateMutability": "nonpayable",
      "type": "function"
    },
    {
      "inputs": [],
      "name": "monadVerifierAddress",
      "outputs": [
        {
          "internalType": "address",
          "name": "",
          "type": "address"
        }
      ],
      "stateMutability": "view",
      "type": "function"
    },
    {
      "inputs": [],
      "name": "name",
      "outputs": [
        {
          "internalType": "string",
          "name": "",
          "type": "string"
        }
      ],
      "stateMutability": "view",
      "type": "function"
    },
    {
      "inputs": [
        {
          "internalType": "uint256",
          "name": "tokenId",
          "type": "uint256"
        }
      ],
      "name": "ownerOf",
      "outputs": [
        {
          "internalType": "address",
          "name": "",
          "type": "address"
        }
      ],
      "stateMutability": "view",
      "type": "function"
    },
    {
      "inputs": [
        {
          "internalType": "address",
          "name": "from",
          "type": "address"
        },
        {
          "internalType": "address",
          "name": "to",
          "type": "address"
        },
        {
          "internalType": "uint256",
          "name": "tokenId",
          "type": "uint256"
        }
      ],
      "name": "safeTransferFrom",
      "outputs": [],
      "stateMutability": "nonpayable",
      "type": "function"
    },
    {
      "inputs": [
        {
          "internalType": "address",
          "name": "from",
          "type": "address"
        },
        {
          "internalType": "address",
          "name": "to",
          "type": "address"
        },
        {
          "internalType": "uint256",
          "name": "tokenId",
          "type": "uint256"
        },
        {
          "internalType": "bytes",
          "name": "data",
          "type": "bytes"
        }
      ],
      "name": "safeTransferFrom",
      "outputs": [],
      "stateMutability": "nonpayable",
      "type": "function"
    },
    {
      "inputs": [
        {
          "internalType": "address",
          "name": "operator",
          "type": "address"
        },
        {
          "internalType": "bool",
          "name": "approved",
          "type": "bool"
        }
      ],
      "name": "setApprovalForAll",
      "outputs": [],
      "stateMutability": "nonpayable",
      "type": "function"
    },
    {
      "inputs": [
        {
          "internalType": "bytes4",
          "name": "interfaceId",
          "type": "bytes4"
        }
      ],
      "name": "supportsInterface",
      "outputs": [
        {
          "internalType": "bool",
          "name": "",
          "type": "bool"
        }
      ],
      "stateMutability": "view",
      "type": "function"
    },
    {
      "inputs": [],
      "name": "symbol",
      "outputs": [
        {
          "internalType": "string",
          "name": "",
          "type": "string"
        }
      ],
      "stateMutability": "view",
      "type": "function"
    },
    {
      "inputs": [
        {
          "internalType": "uint256",
          "name": "tokenId",
          "type": "uint256"
        }
      ],
      "name": "tokenURI",
      "outputs": [
        {
          "internalType": "string",
          "name": "",
          "type": "string"
        }
      ],
      "stateMutability": "view",
      "type": "function"
    },
    {
      "inputs": [
        {
          "internalType": "address",
          "name": "from",
          "type": "address"
        },
        {
          "internalType": "address",
          "name": "to",
          "type": "address"
        },
        {
          "internalType": "uint256",
          "name": "tokenId",
          "type": "uint256"
        }
      ],
      "name": "transferFrom",
      "outputs": [],
      "stateMutability": "nonpayable",
      "type": "function"
    },
    {
      "inputs": [
        {
          "internalType": "uint256",
          "name": "tokenId",
          "type": "uint256"
        },
        {
          "internalType": "bool",
          "name": "newStatus",
          "type": "bool"
        }
      ],
      "name": "updateLicenseStatus",
      "outputs": [],
      "stateMutability": "nonpayable",
      "type": "function"
    },
    {
      "inputs": [
        {
          "internalType": "address",
          "name": "",
          "type": "address"
        },
        {
          "internalType": "uint256",
          "name": "",
          "type": "uint256"
        }
      ],
      "name": "userTokens",
      "outputs": [
        {
          "internalType": "uint256",
          "name": "",
          "type": "uint256"
        }
      ],
      "stateMutability": "view",
      "type": "function"
    },
    {
      "inputs": [
        {
          "internalType": "bytes32",
          "name": "",
          "type": "bytes32"
        }
      ],
      "name": "verifiedInferences",
      "outputs": [
        {
          "internalType": "bool",
          "name": "",
          "type": "bool"
        }
      ],
      "stateMutability": "view",
      "type": "function"
    },
    {
      "inputs": [
        {
          "internalType": "uint256",
          "name": "tokenId",
          "type": "uint256"
        },
        {
          "internalType": "string",
          "name": "inputData",
          "type": "string"
        },
        {
          "internalType": "string",
          "name": "outputData",
          "type": "string"
        }
      ],
      "name": "verifyInference",
      "outputs": [],
      "stateMutability": "nonpayable",
      "type": "function"
    }
  ],
  "bytecode": "0x60806040523480156200001157600080fd5b50604051620048283803806200482883398181016040528101906200003791906200017b565b6040518060400160405280600881526020017f414920436c6f6e650000000000000000000000000000000000000000000000008152506040518060400160405280600581526020017f434c4f4e450000000000000000000000000000000000000000000000000000008152508160009081620000b4919062000427565b508060019081620000c6919062000427565b50505080600760006101000a81548173ffffffffffffffffffffffffffffffffffffffff021916908373ffffffffffffffffffffffffffffffffffffffff160217905550506200050e565b600080fd5b600073ffffffffffffffffffffffffffffffffffffffff82169050919050565b6000620001438262000116565b9050919050565b620001558162000136565b81146200016157600080fd5b50565b60008151905062000175816200014a565b92915050565b60006020828403121562000194576200019362000111565b5b6000620001a48482850162000164565b91505092915050565b600081519050919050565b7f4e487b7100000000000000000000000000000000000000000000000000000000600052604160045260246000fd5b7f4e487b7100000000000000000000000000000000000000000000000000000000600052602260045260246000fd5b600060028204905060018216806200022f57607f821691505b602082108103620002455762000244620001e7565b5b50919050565b60008190508160005260206000209050919050565b60006020601f8301049050919050565b600082821b905092915050565b600060088302620002af7fffffffffffffffffffffffffffffffffffffffffffffffffffffffffffffffff8262000270565b620002bb868362000270565b95508019841693508086168417925050509392505050565b6000819050919050565b6000819050919050565b60006200030862000302620002fc84620002d3565b620002dd565b620002d3565b9050919050565b6000819050919050565b6200032483620002e7565b6200033c62000333826200030f565b8484546200027d565b825550505050565b600090565b6200035362000344565b6200036081848462000319565b505050565b5b8181101562000388576200037c60008262000349565b60018101905062000366565b5050565b601f821115620003d757620003a1816200024b565b620003ac8462000260565b81016020851015620003bc578190505b620003d4620003cb8562000260565b83018262000365565b50505b505050565b600082821c905092915050565b6000620003fc60001984600802620003dc565b1980831691505092915050565b6000620004178383620003e9565b9150826002028217905092915050565b6200043282620001ad565b67ffffffffffffffff8111156200044e576200044d620001b8565b5b6200045a825462000216565b620004678282856200038c565b600060209050601f8311600181146200049f57600084156200048a578287015190505b62000496858262000409565b86555062000506565b601f198416620004af866200024b565b60005b82811015620004d957848901518255600182019150602085019450602081019050620004b2565b86831015620004f95784890151620004f5601f891682620003e9565b8355505b6001600288020188555050505b505050505050565b61430a806200051e6000396000f3fe608060405234801561001057600080fd5b506004361061014d5760003560e01c806395d89b41116100c3578063cb6943ec1161007c578063cb6943ec146103c5578063d9640afa146103fa578063e985e9c514610416578063f72b587614610446578063f9f411d814610478578063fac11d36146104a85761014d565b806395d89b41146102da578063a22cb465146102f8578063ab994a9014610314578063b88d4fde14610344578063bce4713f14610360578063c87b56dd146103955761014d565b806323b872dd1161011557806323b872dd1461020857806342842e0e146102245780634b567640146102405780636352211e1461025c57806370a082311461028c57806386ec9286146102bc5761014d565b806301ffc9a71461015257806306fdde0314610182578063081812fc146101a0578063095ea7b3146101d057806312a076a2146101ec575b600080fd5b61016c60048036038101906101679190612867565b6104c4565b60405161017991906128af565b60405180910390f35b61018a6105a6565b604051610197919061295a565b60405180910390f35b6101ba60048036038101906101b591906129b2565b610638565b6040516101c79190612a20565b60405180910390f35b6101ea60048036038101906101e59190612a67565b61067e565b005b61020660048036038101906102019190612c08565b610795565b005b610222600480360381019061021d9190612cc3565b610985565b005b61023e60048036038101906102399190612cc3565b6109e5565b005b61025a60048036038101906102559190612d16565b610a05565b005b610276600480360381019061027191906129b2565b610ae4565b6040516102839190612a20565b60405180910390f35b6102a660048036038101906102a19190612da1565b610b6a565b6040516102b39190612ddd565b60405180910390f35b6102c4610c21565b6040516102d19190612a20565b60405180910390f35b6102e2610c47565b6040516102ef919061295a565b60405180910390f35b610312600480360381019061030d9190612df8565b610cd9565b005b61032e60048036038101906103299190612e6e565b610cef565b60405161033b91906128af565b60405180910390f35b61035e60048036038101906103599190612f3c565b610d0f565b005b61037a600480360381019061037591906129b2565b610d71565b60405161038c96959493929190612fbf565b60405180910390f35b6103af60048036038101906103aa91906129b2565b61104a565b6040516103bc919061295a565b60405180910390f35b6103df60048036038101906103da91906129b2565b6110b2565b6040516103f196959493929190612fbf565b60405180910390f35b610414600480360381019061040f9190613035565b6112b3565b005b610430600480360381019061042b9190613075565b61136e565b60405161043d91906128af565b60405180910390f35b610460600480360381019061045b9190612da1565b611402565b60405161046f9392919061333d565b60405180910390f35b610492600480360381019061048d9190612a67565b611828565b60405161049f9190612ddd565b60405180910390f35b6104c260048036038101906104bd9190613532565b611859565b005b60007f80ac58cd000000000000000000000000000000000000000000000000000000007bffffffffffffffffffffffffffffffffffffffffffffffffffffffff1916827bffffffffffffffffffffffffffffffffffffffffffffffffffffffff1916148061058f57507f5b5e139f000000000000000000000000000000000000000000000000000000007bffffffffffffffffffffffffffffffffffffffffffffffffffffffff1916827bffffffffffffffffffffffffffffffffffffffffffffffffffffffff1916145b8061059f575061059e82611a24565b5b9050919050565b6060600080546105b590613638565b80601f01602080910402602001604051908101604052809291908181526020018280546105e190613638565b801561062e5780601f106106035761010080835404028352916020019161062e565b820191906000526020600020905b81548152906001019060200180831161061157829003601f168201915b5050505050905090565b600061064382611a8e565b6004600083815260200190815260200160002060009054906101000a900473ffffffffffffffffffffffffffffffffffffffff169050919050565b600061068982610ae4565b90508073ffffffffffffffffffffffffffffffffffffffff168373ffffffffffffffffffffffffffffffffffffffff16036106f9576040517f08c379a00000000000000000000000000000000000000000000000000000000081526004016106f0906136db565b60405180910390fd5b8073ffffffffffffffffffffffffffffffffffffffff16610718611ad9565b73ffffffffffffffffffffffffffffffffffffffff161480610747575061074681610741611ad9565b61136e565b5b610786576040517f08c379a000000000000000000000000000000000000000000000000000000000815260040161077d9061376d565b60405180910390fd5b6107908383611ae1565b505050565b6000600660008154809291906107aa906137bc565b9190505590506107ba3382611b9a565b6040518060c001604052808681526020018581526020013373ffffffffffffffffffffffffffffffffffffffff16815260200184815260200183151581526020014281525060086000838152602001908152602001600020600082015181600001908161082791906139b0565b50602082015181600101908161083d91906139b0565b5060408201518160020160006101000a81548173ffffffffffffffffffffffffffffffffffffffff021916908373ffffffffffffffffffffffffffffffffffffffff160217905550606082015181600301908161089a91906139b0565b5060808201518160040160006101000a81548160ff02191690831515021790555060a08201518160050155905050600960003373ffffffffffffffffffffffffffffffffffffffff1673ffffffffffffffffffffffffffffffffffffffff1681526020019081526020016000208190806001815401808255809150506001900390600052602060002001600090919091909150553373ffffffffffffffffffffffffffffffffffffffff167ffe9facaeda7803844b4b343f9e20ad535f18b4e1d9c8c8c4d09414c5abd722488285604051610976929190613a82565b60405180910390a25050505050565b610996610990611ad9565b82611bb8565b6109d5576040517f08c379a00000000000000000000000000000000000000000000000000000000081526004016109cc90613b24565b60405180910390fd5b6109e0838383611c4d565b505050565b610a0083838360405180602001604052806000815250610d0f565b505050565b610a0e83611f46565b610a4d576040517f08c379a0000000000000000000000000000000000000000000000000000000008152600401610a4490613b90565b60405180910390fd5b60008282604051602001610a62929190613bec565b6040516020818303038152906040528051906020012090506001600a600083815260200190815260200160002060006101000a81548160ff021916908315150217905550807ffcd8135e8f2d3dd71d79374dff9863e32f597092563df61b2ceddb3bfa21344885604051610ad69190612ddd565b60405180910390a250505050565b600080610af083611f87565b9050600073ffffffffffffffffffffffffffffffffffffffff168173ffffffffffffffffffffffffffffffffffffffff1603610b61576040517f08c379a0000000000000000000000000000000000000000000000000000000008152600401610b5890613c5c565b60405180910390fd5b80915050919050565b60008073ffffffffffffffffffffffffffffffffffffffff168273ffffffffffffffffffffffffffffffffffffffff1603610bda576040517f08c379a0000000000000000000000000000000000000000000000000000000008152600401610bd190613cee565b60405180910390fd5b600360008373ffffffffffffffffffffffffffffffffffffffff1673ffffffffffffffffffffffffffffffffffffffff168152602001908152602001600020549050919050565b600760009054906101000a900473ffffffffffffffffffffffffffffffffffffffff1681565b606060018054610c5690613638565b80601f0160208091040260200160405190810160405280929190818152602001828054610c8290613638565b8015610ccf5780601f10610ca457610100808354040283529160200191610ccf565b820191906000526020600020905b815481529060010190602001808311610cb257829003601f168201915b5050505050905090565b610ceb610ce4611ad9565b8383611fc4565b5050565b600a6020528060005260406000206000915054906101000a900460ff1681565b610d20610d1a611ad9565b83611bb8565b610d5f576040517f08c379a0000000000000000000000000000000000000000000000000000000008152600401610d5690613b24565b60405180910390fd5b610d6b84848484612130565b50505050565b60608060006060600080610d8487611f46565b610dc3576040517f08c379a0000000000000000000000000000000000000000000000000000000008152600401610dba90613b90565b60405180910390fd5b6000600860008981526020019081526020016000206040518060c0016040529081600082018054610df390613638565b80601f0160208091040260200160405190810160405280929190818152602001828054610e1f90613638565b8015610e6c5780601f10610e4157610100808354040283529160200191610e6c565b820191906000526020600020905b815481529060010190602001808311610e4f57829003601f168201915b50505050508152602001600182018054610e8590613638565b80601f0160208091040260200160405190810160405280929190818152602001828054610eb190613638565b8015610efe5780601f10610ed357610100808354040283529160200191610efe565b820191906000526020600020905b815481529060010190602001808311610ee157829003601f168201915b505050505081526020016002820160009054906101000a900473ffffffffffffffffffffffffffffffffffffffff1673ffffffffffffffffffffffffffffffffffffffff1673ffffffffffffffffffffffffffffffffffffffff168152602001600382018054610f6d90613638565b80601f0160208091040260200160405190810160405280929190818152602001828054610f9990613638565b8015610fe65780601f10610fbb57610100808354040283529160200191610fe6565b820191906000526020600020905b815481529060010190602001808311610fc957829003601f168201915b505050505081526020016004820160009054906101000a900460ff161515151581526020016005820154815250509050806000015181602001518260400151836060015184608001518560a001519650965096509650965096505091939550919395565b606061105582611a8e565b600061105f61218c565b9050600081511161107f57604051806020016040528060008152506110aa565b80611089846121ac565b60405160200161109a929190613bec565b6040516020818303038152906040525b915050919050565b60086020528060005260406000206000915090508060000180546110d590613638565b80601f016020809104026020016040519081016040528092919081815260200182805461110190613638565b801561114e5780601f106111235761010080835404028352916020019161114e565b820191906000526020600020905b81548152906001019060200180831161113157829003601f168201915b50505050509080600101805461116390613638565b80601f016020809104026020016040519081016040528092919081815260200182805461118f90613638565b80156111dc5780601f106111b1576101008083540402835291602001916111dc565b820191906000526020600020905b8154815290600101906020018083116111bf57829003601f168201915b5050505050908060020160009054906101000a900473ffffffffffffffffffffffffffffffffffffffff169080600301805461121790613638565b80601f016020809104026020016040519081016040528092919081815260200182805461124390613638565b80156112905780601f1061126557610100808354040283529160200191611290565b820191906000526020600020905b81548152906001019060200180831161127357829003601f168201915b5050505050908060040160009054906101000a900460ff16908060050154905086565b6112c46112be611ad9565b83611bb8565b611303576040517f08c379a00000000000000000000000000000000000000000000000000000000081526004016112fa90613d5a565b60405180910390fd5b806008600084815260200190815260200160002060040160006101000a81548160ff0219169083151502179055507fdd535440d0344dfd254d0d3fb6517d4a3f913d063200f016afb7b30d1c4fb9898282604051611362929190613d7a565b60405180910390a15050565b6000600560008473ffffffffffffffffffffffffffffffffffffffff1673ffffffffffffffffffffffffffffffffffffffff16815260200190815260200160002060008373ffffffffffffffffffffffffffffffffffffffff1673ffffffffffffffffffffffffffffffffffffffff16815260200190815260200160002060009054906101000a900460ff16905092915050565b60608060606000600960008673ffffffffffffffffffffffffffffffffffffffff1673ffffffffffffffffffffffffffffffffffffffff16815260200190815260200160002080548060200260200160405190810160405280929190818152602001828054801561149257602002820191906000526020600020905b81548152602001906001019080831161147e575b505050505090506000815167ffffffffffffffff8111156114b6576114b5612ab1565b5b6040519080825280602002602001820160405280156114e957816020015b60608152602001906001900390816114d45790505b5090506000825167ffffffffffffffff81111561150957611508612ab1565b5b6040519080825280602002602001820160405280156115375781602001602082028036833780820191505090505b50905060005b83518110156118145760006008600086848151811061155f5761155e613da3565b5b602002602001015181526020019081526020016000206040518060c001604052908160008201805461159090613638565b80601f01602080910402602001604051908101604052809291908181526020018280546115bc90613638565b80156116095780601f106115de57610100808354040283529160200191611609565b820191906000526020600020905b8154815290600101906020018083116115ec57829003601f168201915b5050505050815260200160018201805461162290613638565b80601f016020809104026020016040519081016040528092919081815260200182805461164e90613638565b801561169b5780601f106116705761010080835404028352916020019161169b565b820191906000526020600020905b81548152906001019060200180831161167e57829003601f168201915b505050505081526020016002820160009054906101000a900473ffffffffffffffffffffffffffffffffffffffff1673ffffffffffffffffffffffffffffffffffffffff1673ffffffffffffffffffffffffffffffffffffffff16815260200160038201805461170a90613638565b80601f016020809104026020016040519081016040528092919081815260200182805461173690613638565b80156117835780601f1061175857610100808354040283529160200191611783565b820191906000526020600020905b81548152906001019060200180831161176657829003601f168201915b505050505081526020016004820160009054906101000a900460ff16151515158152602001600582015481525050905080606001518483815181106117cb576117ca613da3565b5b602002602001018190525080608001518383815181106117ee576117ed613da3565b5b60200260200101901515908115158152505050808061180c906137bc565b91505061153d565b508282829550955095505050509193909250565b6009602052816000526040600020818154811061184457600080fd5b90600052602060002001600091509150505481565b825184511461189d576040517f08c379a000000000000000000000000000000000000000000000000000000000815260040161189490613e1e565b60405180910390fd5b81518451146118e1576040517f08c379a00000000000000000000000000000000000000000000000000000000081526004016118d890613e1e565b60405180910390fd5b8051845114611925576040517f08c379a000000000000000000000000000000000000000000000000000000000815260040161191c90613e1e565b60405180910390fd5b60005b8451811015611a1d573073ffffffffffffffffffffffffffffffffffffffff166312a076a28683815181106119605761195f613da3565b5b602002602001015186848151811061197b5761197a613da3565b5b602002602001015186858151811061199657611995613da3565b5b60200260200101518686815181106119b1576119b0613da3565b5b60200260200101516040518563ffffffff1660e01b81526004016119d89493929190613e3e565b600060405180830381600087803b1580156119f257600080fd5b505af1158015611a06573d6000803e3d6000fd5b505050508080611a15906137bc565b915050611928565b5050505050565b60007f01ffc9a7000000000000000000000000000000000000000000000000000000007bffffffffffffffffffffffffffffffffffffffffffffffffffffffff1916827bffffffffffffffffffffffffffffffffffffffffffffffffffffffff1916149050919050565b611a9781611f46565b611ad6576040517f08c379a0000000000000000000000000000000000000000000000000000000008152600401611acd90613c5c565b60405180910390fd5b50565b600033905090565b816004600083815260200190815260200160002060006101000a81548173ffffffffffffffffffffffffffffffffffffffff021916908373ffffffffffffffffffffffffffffffffffffffff160217905550808273ffffffffffffffffffffffffffffffffffffffff16611b5483610ae4565b73ffffffffffffffffffffffffffffffffffffffff167f8c5be1e5ebec7d5bd14f71427d1e84f3dd0314c0f7b2291e5b200ac8c7c3b92560405160405180910390a45050565b611bb482826040518060200160405280600081525061227a565b5050565b600080611bc483610ae4565b90508073ffffffffffffffffffffffffffffffffffffffff168473ffffffffffffffffffffffffffffffffffffffff161480611c065750611c05818561136e565b5b80611c4457508373ffffffffffffffffffffffffffffffffffffffff16611c2c84610638565b73ffffffffffffffffffffffffffffffffffffffff16145b91505092915050565b8273ffffffffffffffffffffffffffffffffffffffff16611c6d82610ae4565b73ffffffffffffffffffffffffffffffffffffffff1614611cc3576040517f08c379a0000000000000000000000000000000000000000000000000000000008152600401611cba90613f0a565b60405180910390fd5b600073ffffffffffffffffffffffffffffffffffffffff168273ffffffffffffffffffffffffffffffffffffffff1603611d32576040517f08c379a0000000000000000000000000000000000000000000000000000000008152600401611d2990613f9c565b60405180910390fd5b611d3f83838360016122d5565b8273ffffffffffffffffffffffffffffffffffffffff16611d5f82610ae4565b73ffffffffffffffffffffffffffffffffffffffff1614611db5576040517f08c379a0000000000000000000000000000000000000000000000000000000008152600401611dac90613f0a565b60405180910390fd5b6004600082815260200190815260200160002060006101000a81549073ffffffffffffffffffffffffffffffffffffffff02191690556001600360008573ffffffffffffffffffffffffffffffffffffffff1673ffffffffffffffffffffffffffffffffffffffff168152602001908152602001600020600082825403925050819055506001600360008473ffffffffffffffffffffffffffffffffffffffff1673ffffffffffffffffffffffffffffffffffffffff16815260200190815260200160002060008282540192505081905550816002600083815260200190815260200160002060006101000a81548173ffffffffffffffffffffffffffffffffffffffff021916908373ffffffffffffffffffffffffffffffffffffffff160217905550808273ffffffffffffffffffffffffffffffffffffffff168473ffffffffffffffffffffffffffffffffffffffff167fddf252ad1be2c89b69c2b068fc378daa952ba7f163c4a11628f55a4df523b3ef60405160405180910390a4611f4183838360016122db565b505050565b60008073ffffffffffffffffffffffffffffffffffffffff16611f6883611f87565b73ffffffffffffffffffffffffffffffffffffffff1614159050919050565b60006002600083815260200190815260200160002060009054906101000a900473ffffffffffffffffffffffffffffffffffffffff169050919050565b8173ffffffffffffffffffffffffffffffffffffffff168373ffffffffffffffffffffffffffffffffffffffff1603612032576040517f08c379a000000000000000000000000000000000000000000000000000000000815260040161202990614008565b60405180910390fd5b80600560008573ffffffffffffffffffffffffffffffffffffffff1673ffffffffffffffffffffffffffffffffffffffff16815260200190815260200160002060008473ffffffffffffffffffffffffffffffffffffffff1673ffffffffffffffffffffffffffffffffffffffff16815260200190815260200160002060006101000a81548160ff0219169083151502179055508173ffffffffffffffffffffffffffffffffffffffff168373ffffffffffffffffffffffffffffffffffffffff167f17307eab39ab6107e8899845ad3d59bd9653f200f220920489ca2b5937696c318360405161212391906128af565b60405180910390a3505050565b61213b848484611c4d565b612147848484846122e1565b612186576040517f08c379a000000000000000000000000000000000000000000000000000000000815260040161217d9061409a565b60405180910390fd5b50505050565b60606040518060600160405280603081526020016142a560309139905090565b6060600060016121bb84612468565b01905060008167ffffffffffffffff8111156121da576121d9612ab1565b5b6040519080825280601f01601f19166020018201604052801561220c5781602001600182028036833780820191505090505b509050600082602001820190505b60011561226f578080600190039150507f3031323334353637383961626364656600000000000000000000000000000000600a86061a8153600a8581612263576122626140ba565b5b0494506000850361221a575b819350505050919050565b61228483836125bb565b61229160008484846122e1565b6122d0576040517f08c379a00000000000000000000000000000000000000000000000000000000081526004016122c79061409a565b60405180910390fd5b505050565b50505050565b50505050565b60006123028473ffffffffffffffffffffffffffffffffffffffff166127d8565b1561245b578373ffffffffffffffffffffffffffffffffffffffff1663150b7a0261232b611ad9565b8786866040518563ffffffff1660e01b815260040161234d949392919061413e565b6020604051808303816000875af192505050801561238957506040513d601f19601f82011682018060405250810190612386919061419f565b60015b61240b573d80600081146123b9576040519150601f19603f3d011682016040523d82523d6000602084013e6123be565b606091505b506000815103612403576040517f08c379a00000000000000000000000000000000000000000000000000000000081526004016123fa9061409a565b60405180910390fd5b805181602001fd5b63150b7a0260e01b7bffffffffffffffffffffffffffffffffffffffffffffffffffffffff1916817bffffffffffffffffffffffffffffffffffffffffffffffffffffffff191614915050612460565b600190505b949350505050565b600080600090507a184f03e93ff9f4daa797ed6e38ed64bf6a1f01000000000000000083106124c6577a184f03e93ff9f4daa797ed6e38ed64bf6a1f01000000000000000083816124bc576124bb6140ba565b5b0492506040810190505b6d04ee2d6d415b85acef81000000008310612503576d04ee2d6d415b85acef810000000083816124f9576124f86140ba565b5b0492506020810190505b662386f26fc10000831061253257662386f26fc100008381612528576125276140ba565b5b0492506010810190505b6305f5e100831061255b576305f5e1008381612551576125506140ba565b5b0492506008810190505b6127108310612580576127108381612576576125756140ba565b5b0492506004810190505b606483106125a35760648381612599576125986140ba565b5b0492506002810190505b600a83106125b2576001810190505b80915050919050565b600073ffffffffffffffffffffffffffffffffffffffff168273ffffffffffffffffffffffffffffffffffffffff160361262a576040517f08c379a000000000000000000000000000000000000000000000000000000000815260040161262190614218565b60405180910390fd5b61263381611f46565b15612673576040517f08c379a000000000000000000000000000000000000000000000000000000000815260040161266a90614284565b60405180910390fd5b6126816000838360016122d5565b61268a81611f46565b156126ca576040517f08c379a00000000000000000000000000000000000000000000000000000000081526004016126c190614284565b60405180910390fd5b6001600360008473ffffffffffffffffffffffffffffffffffffffff1673ffffffffffffffffffffffffffffffffffffffff16815260200190815260200160002060008282540192505081905550816002600083815260200190815260200160002060006101000a81548173ffffffffffffffffffffffffffffffffffffffff021916908373ffffffffffffffffffffffffffffffffffffffff160217905550808273ffffffffffffffffffffffffffffffffffffffff16600073ffffffffffffffffffffffffffffffffffffffff167fddf252ad1be2c89b69c2b068fc378daa952ba7f163c4a11628f55a4df523b3ef60405160405180910390a46127d46000838360016122db565b5050565b6000808273ffffffffffffffffffffffffffffffffffffffff163b119050919050565b6000604051905090565b600080fd5b600080fd5b60007fffffffff0000000000000000000000000000000000000000000000000000000082169050919050565b6128448161280f565b811461284f57600080fd5b50565b6000813590506128618161283b565b92915050565b60006020828403121561287d5761287c612805565b5b600061288b84828501612852565b91505092915050565b60008115159050919050565b6128a981612894565b82525050565b60006020820190506128c460008301846128a0565b92915050565b600081519050919050565b600082825260208201905092915050565b60005b838110156129045780820151818401526020810190506128e9565b60008484015250505050565b6000601f19601f8301169050919050565b600061292c826128ca565b61293681856128d5565b93506129468185602086016128e6565b61294f81612910565b840191505092915050565b600060208201905081810360008301526129748184612921565b905092915050565b6000819050919050565b61298f8161297c565b811461299a57600080fd5b50565b6000813590506129ac81612986565b92915050565b6000602082840312156129c8576129c7612805565b5b60006129d68482850161299d565b91505092915050565b600073ffffffffffffffffffffffffffffffffffffffff82169050919050565b6000612a0a826129df565b9050919050565b612a1a816129ff565b82525050565b6000602082019050612a356000830184612a11565b92915050565b612a44816129ff565b8114612a4f57600080fd5b50565b600081359050612a6181612a3b565b92915050565b60008060408385031215612a7e57612a7d612805565b5b6000612a8c85828601612a52565b9250506020612a9d8582860161299d565b9150509250929050565b600080fd5b600080fd5b7f4e487b7100000000000000000000000000000000000000000000000000000000600052604160045260246000fd5b612ae982612910565b810181811067ffffffffffffffff82111715612b0857612b07612ab1565b5b80604052505050565b6000612b1b6127fb565b9050612b278282612ae0565b919050565b600067ffffffffffffffff821115612b4757612b46612ab1565b5b612b5082612910565b9050602081019050919050565b82818337600083830152505050565b6000612b7f612b7a84612b2c565b612b11565b905082815260208101848484011115612b9b57612b9a612aac565b5b612ba6848285612b5d565b509392505050565b600082601f830112612bc357612bc2612aa7565b5b8135612bd3848260208601612b6c565b91505092915050565b612be581612894565b8114612bf057600080fd5b50565b600081359050612c0281612bdc565b92915050565b60008060008060808587031215612c2257612c21612805565b5b600085013567ffffffffffffffff811115612c4057612c3f61280a565b5b612c4c87828801612bae565b945050602085013567ffffffffffffffff811115612c6d57612c6c61280a565b5b612c7987828801612bae565b935050604085013567ffffffffffffffff811115612c9a57612c9961280a565b5b612ca687828801612bae565b9250506060612cb787828801612bf3565b91505092959194509250565b600080600060608486031215612cdc57612cdb612805565b5b6000612cea86828701612a52565b9350506020612cfb86828701612a52565b9250506040612d0c8682870161299d565b9150509250925092565b600080600060608486031215612d2f57612d2e612805565b5b6000612d3d8682870161299d565b935050602084013567ffffffffffffffff811115612d5e57612d5d61280a565b5b612d6a86828701612bae565b925050604084013567ffffffffffffffff811115612d8b57612d8a61280a565b5b612d9786828701612bae565b9150509250925092565b600060208284031215612db757612db6612805565b5b6000612dc584828501612a52565b91505092915050565b612dd78161297c565b82525050565b6000602082019050612df26000830184612dce565b92915050565b60008060408385031215612e0f57612e0e612805565b5b6000612e1d85828601612a52565b9250506020612e2e85828601612bf3565b9150509250929050565b6000819050919050565b612e4b81612e38565b8114612e5657600080fd5b50565b600081359050612e6881612e42565b92915050565b600060208284031215612e8457612e83612805565b5b6000612e9284828501612e59565b91505092915050565b600067ffffffffffffffff821115612eb657612eb5612ab1565b5b612ebf82612910565b9050602081019050919050565b6000612edf612eda84612e9b565b612b11565b905082815260208101848484011115612efb57612efa612aac565b5b612f06848285612b5d565b509392505050565b600082601f830112612f2357612f22612aa7565b5b8135612f33848260208601612ecc565b91505092915050565b60008060008060808587031215612f5657612f55612805565b5b6000612f6487828801612a52565b9450506020612f7587828801612a52565b9350506040612f868782880161299d565b925050606085013567ffffffffffffffff811115612fa757612fa661280a565b5b612fb387828801612f0e565b91505092959194509250565b600060c0820190508181036000830152612fd98189612921565b90508181036020830152612fed8188612921565b9050612ffc6040830187612a11565b818103606083015261300e8186612921565b905061301d60808301856128a0565b61302a60a0830184612dce565b979650505050505050565b6000806040838503121561304c5761304b612805565b5b600061305a8582860161299d565b925050602061306b85828601612bf3565b9150509250929050565b6000806040838503121561308c5761308b612805565b5b600061309a85828601612a52565b92505060206130ab85828601612a52565b9150509250929050565b600081519050919050565b600082825260208201905092915050565b6000819050602082019050919050565b6130ea8161297c565b82525050565b60006130fc83836130e1565b60208301905092915050565b6000602082019050919050565b6000613120826130b5565b61312a81856130c0565b9350613135836130d1565b8060005b8381101561316657815161314d88826130f0565b975061315883613108565b925050600181019050613139565b5085935050505092915050565b600081519050919050565b600082825260208201905092915050565b6000819050602082019050919050565b600082825260208201905092915050565b60006131bb826128ca565b6131c5818561319f565b93506131d58185602086016128e6565b6131de81612910565b840191505092915050565b60006131f583836131b0565b905092915050565b6000602082019050919050565b600061321582613173565b61321f818561317e565b9350836020820285016132318561318f565b8060005b8581101561326d578484038952815161324e85826131e9565b9450613259836131fd565b925060208a01995050600181019050613235565b50829750879550505050505092915050565b600081519050919050565b600082825260208201905092915050565b6000819050602082019050919050565b6132b481612894565b82525050565b60006132c683836132ab565b60208301905092915050565b6000602082019050919050565b60006132ea8261327f565b6132f4818561328a565b93506132ff8361329b565b8060005b8381101561333057815161331788826132ba565b9750613322836132d2565b925050600181019050613303565b5085935050505092915050565b600060608201905081810360008301526133578186613115565b9050818103602083015261336b818561320a565b9050818103604083015261337f81846132df565b9050949350505050565b600067ffffffffffffffff8211156133a4576133a3612ab1565b5b602082029050602081019050919050565b600080fd5b60006133cd6133c884613389565b612b11565b905080838252602082019050602084028301858111156133f0576133ef6133b5565b5b835b8181101561343757803567ffffffffffffffff81111561341557613414612aa7565b5b8086016134228982612bae565b855260208501945050506020810190506133f2565b5050509392505050565b600082601f83011261345657613455612aa7565b5b81356134668482602086016133ba565b91505092915050565b600067ffffffffffffffff82111561348a57613489612ab1565b5b602082029050602081019050919050565b60006134ae6134a98461346f565b612b11565b905080838252602082019050602084028301858111156134d1576134d06133b5565b5b835b818110156134fa57806134e68882612bf3565b8452602084019350506020810190506134d3565b5050509392505050565b600082601f83011261351957613518612aa7565b5b813561352984826020860161349b565b91505092915050565b6000806000806080858703121561354c5761354b612805565b5b600085013567ffffffffffffffff81111561356a5761356961280a565b5b61357687828801613441565b945050602085013567ffffffffffffffff8111156135975761359661280a565b5b6135a387828801613441565b935050604085013567ffffffffffffffff8111156135c4576135c361280a565b5b6135d087828801613441565b925050606085013567ffffffffffffffff8111156135f1576135f061280a565b5b6135fd87828801613504565b91505092959194509250565b7f4e487b7100000000000000000000000000000000000000000000000000000000600052602260045260246000fd5b6000600282049050600182168061365057607f821691505b60208210810361366357613662613609565b5b50919050565b7f4552433732313a20617070726f76616c20746f2063757272656e74206f776e6560008201527f7200000000000000000000000000000000000000000000000000000000000000602082015250565b60006136c56021836128d5565b91506136d082613669565b604082019050919050565b600060208201905081810360008301526136f4816136b8565b9050919050565b7f4552433732313a20617070726f76652063616c6c6572206973206e6f7420746f60008201527f6b656e206f776e6572206f7220617070726f76656420666f7220616c6c000000602082015250565b6000613757603d836128d5565b9150613762826136fb565b604082019050919050565b600060208201905081810360008301526137868161374a565b9050919050565b7f4e487b7100000000000000000000000000000000000000000000000000000000600052601160045260246000fd5b60006137c78261297c565b91507fffffffffffffffffffffffffffffffffffffffffffffffffffffffffffffffff82036137f9576137f861378d565b5b600182019050919050565b60008190508160005260206000209050919050565b60006020601f8301049050919050565b600082821b905092915050565b6000600883026138667fffffffffffffffffffffffffffffffffffffffffffffffffffffffffffffffff82613829565b6138708683613829565b95508019841693508086168417925050509392505050565b6000819050919050565b60006138ad6138a86138a38461297c565b613888565b61297c565b9050919050565b6000819050919050565b6138c783613892565b6138db6138d3826138b4565b848454613836565b825550505050565b600090565b6138f06138e3565b6138fb8184846138be565b505050565b5b8181101561391f576139146000826138e8565b600181019050613901565b5050565b601f8211156139645761393581613804565b61393e84613819565b8101602085101561394d578190505b61396161395985613819565b830182613900565b50505b505050565b600082821c905092915050565b600061398760001984600802613969565b1980831691505092915050565b60006139a08383613976565b9150826002028217905092915050565b6139b9826128ca565b67ffffffffffffffff8111156139d2576139d1612ab1565b5b6139dc8254613638565b6139e7828285613923565b600060209050601f831160018114613a1a5760008415613a08578287015190505b613a128582613994565b865550613a7a565b601f198416613a2886613804565b60005b82811015613a5057848901518255600182019150602085019450602081019050613a2b565b86831015613a6d5784890151613a69601f891682613976565b8355505b6001600288020188555050505b505050505050565b6000604082019050613a976000830185612dce565b8181036020830152613aa98184612921565b90509392505050565b7f4552433732313a2063616c6c6572206973206e6f7420746f6b656e206f776e6560008201527f72206f7220617070726f76656400000000000000000000000000000000000000602082015250565b6000613b0e602d836128d5565b9150613b1982613ab2565b604082019050919050565b60006020820190508181036000830152613b3d81613b01565b9050919050565b7f496e76616c696420746f6b656e00000000000000000000000000000000000000600082015250565b6000613b7a600d836128d5565b9150613b8582613b44565b602082019050919050565b60006020820190508181036000830152613ba981613b6d565b9050919050565b600081905092915050565b6000613bc6826128ca565b613bd08185613bb0565b9350613be08185602086016128e6565b80840191505092915050565b6000613bf88285613bbb565b9150613c048284613bbb565b91508190509392505050565b7f4552433732313a20696e76616c696420746f6b656e2049440000000000000000600082015250565b6000613c466018836128d5565b9150613c5182613c10565b602082019050919050565b60006020820190508181036000830152613c7581613c39565b9050919050565b7f4552433732313a2061646472657373207a65726f206973206e6f74206120766160008201527f6c6964206f776e65720000000000000000000000000000000000000000000000602082015250565b6000613cd86029836128d5565b9150613ce382613c7c565b604082019050919050565b60006020820190508181036000830152613d0781613ccb565b9050919050565b7f4e6f74206f776e65722f617070726f7665640000000000000000000000000000600082015250565b6000613d446012836128d5565b9150613d4f82613d0e565b602082019050919050565b60006020820190508181036000830152613d7381613d37565b9050919050565b6000604082019050613d8f6000830185612dce565b613d9c60208301846128a0565b9392505050565b7f4e487b7100000000000000000000000000000000000000000000000000000000600052603260045260246000fd5b7f4172726179206c656e677468206d69736d617463680000000000000000000000600082015250565b6000613e086015836128d5565b9150613e1382613dd2565b602082019050919050565b60006020820190508181036000830152613e3781613dfb565b9050919050565b60006080820190508181036000830152613e588187612921565b90508181036020830152613e6c8186612921565b90508181036040830152613e808185612921565b9050613e8f60608301846128a0565b95945050505050565b7f4552433732313a207472616e736665722066726f6d20696e636f72726563742060008201527f6f776e6572000000000000000000000000000000000000000000000000000000602082015250565b6000613ef46025836128d5565b9150613eff82613e98565b604082019050919050565b60006020820190508181036000830152613f2381613ee7565b9050919050565b7f4552433732313a207472616e7366657220746f20746865207a65726f2061646460008201527f7265737300000000000000000000000000000000000000000000000000000000602082015250565b6000613f866024836128d5565b9150613f9182613f2a565b604082019050919050565b60006020820190508181036000830152613fb581613f79565b9050919050565b7f4552433732313a20617070726f766520746f2063616c6c657200000000000000600082015250565b6000613ff26019836128d5565b9150613ffd82613fbc565b602082019050919050565b6000602082019050818103600083015261402181613fe5565b9050919050565b7f4552433732313a207472616e7366657220746f206e6f6e20455243373231526560008201527f63656976657220696d706c656d656e7465720000000000000000000000000000602082015250565b60006140846032836128d5565b915061408f82614028565b604082019050919050565b600060208201905081810360008301526140b381614077565b9050919050565b7f4e487b7100000000000000000000000000000000000000000000000000000000600052601260045260246000fd5b600081519050919050565b600082825260208201905092915050565b6000614110826140e9565b61411a81856140f4565b935061412a8185602086016128e6565b61413381612910565b840191505092915050565b60006080820190506141536000830187612a11565b6141606020830186612a11565b61416d6040830185612dce565b818103606083015261417f8184614105565b905095945050505050565b6000815190506141998161283b565b92915050565b6000602082840312156141b5576141b4612805565b5b60006141c38482850161418a565b91505092915050565b7f4552433732313a206d696e7420746f20746865207a65726f2061646472657373600082015250565b60006142026020836128d5565b915061420d826141cc565b602082019050919050565b60006020820190508181036000830152614231816141f5565b9050919050565b7f4552433732313a20746f6b656e20616c7265616479206d696e74656400000000600082015250565b600061426e601c836128d5565b915061427982614238565b602082019050919050565b6000602082019050818103600083015261429d81614261565b905091905056fe68747470733a2f2f626173652d6f7074696d697a65642d7572692e6578616d706c652e636f6d2f6d657461646174612fa2646970667358221220bb2d2aeee39eb1b15d5114c1ace878fd559f055f670a29bcb384ebbca3031ed764736f6c63430008140033",
  "linkReferences": {},
  "deployedLinkReferences": {}
}