{
  "_format": "hh-sol-artifact-1",
  "contractName": "CloneNFT",
  "sourceName": "contracts/CloneNFT.sol",
  "abi": [
    {
      "inputs": [
        {
          "internalType": "address",
          "name": "_monadVerifier",
          "type": "address"
        }
      ],
      "stateMutability": "nonpayable",
      "type": "constructor"
    },
    {
      "anonymous": false,
      "inputs": [
        {
          "indexed": true,
          "internalType": "address",
          "name": "owner",
          "type": "address"
        },
        {
          "indexed": true,
          "internalType": "address",
          "name": "approved",
          "type": "address"
        },
        {
          "indexed": true,
          "internalType": "uint256",
          "name": "tokenId",
          "type": "uint256"
        }
      ],
      "name": "Approval",
      "type": "event"
    },
    {
      "anonymous": false,
      "inputs": [
        {
          "indexed": true,
          "internalType": "address",
          "name": "owner",
          "type": "address"
        },
        {
          "indexed": true,
          "internalType": "address",
          "name": "operator",
          "type": "address"
        },
        {
          "indexed": false,
          "internalType": "bool",
          "name": "approved",
          "type": "bool"
        }
      ],
      "name": "ApprovalForAll",
      "type": "event"
    },
    {
      "anonymous": false,
      "inputs": [
        {
          "indexed": false,
          "internalType": "uint256",
          "name": "_fromTokenId",
          "type": "uint256"
        },
        {
          "indexed": false,
          "internalType": "uint256",
          "name": "_toTokenId",
          "type": "uint256"
        }
      ],
      "name": "BatchMetadataUpdate",
      "type": "event"
    },
    {
      "anonymous": false,
      "inputs": [
        {
          "indexed": true,
          "internalType": "address",
          "name": "owner",
          "type": "address"
        },
        {
          "indexed": false,
          "internalType": "uint256",
          "name": "tokenId",
          "type": "uint256"
        },
        {
          "indexed": false,
          "internalType": "string",
          "name": "metadataURI",
          "type": "string"
        }
      ],
      "name": "CloneMinted",
      "type": "event"
    },
    {
      "anonymous": false,
      "inputs": [
        {
          "indexed": false,
          "internalType": "uint256",
          "name": "_tokenId",
          "type": "uint256"
        }
      ],
      "name": "MetadataUpdate",
      "type": "event"
    },
    {
      "anonymous": false,
      "inputs": [
        {
          "indexed": true,
          "internalType": "address",
          "name": "previousOwner",
          "type": "address"
        },
        {
          "indexed": true,
          "internalType": "address",
          "name": "newOwner",
          "type": "address"
        }
      ],
      "name": "OwnershipTransferred",
      "type": "event"
    },
    {
      "anonymous": false,
      "inputs": [
        {
          "indexed": true,
          "internalType": "address",
          "name": "from",
          "type": "address"
        },
        {
          "indexed": true,
          "internalType": "address",
          "name": "to",
          "type": "address"
        },
        {
          "indexed": true,
          "internalType": "uint256",
          "name": "tokenId",
          "type": "uint256"
        }
      ],
      "name": "Transfer",
      "type": "event"
    },
    {
      "inputs": [
        {
          "internalType": "address",
          "name": "to",
          "type": "address"
        },
        {
          "internalType": "uint256",
          "name": "tokenId",
          "type": "uint256"
        }
      ],
      "name": "approve",
      "outputs": [],
      "stateMutability": "nonpayable",
      "type": "function"
    },
    {
      "inputs": [
        {
          "internalType": "address",
          "name": "owner",
          "type": "address"
        }
      ],
      "name": "balanceOf",
      "outputs": [
        {
          "internalType": "uint256",
          "name": "",
          "type": "uint256"
        }
      ],
      "stateMutability": "view",
      "type": "function"
    },
    {
      "inputs": [
        {
          "internalType": "uint256",
          "name": "",
          "type": "uint256"
        }
      ],
      "name": "cloneMetadata",
      "outputs": [
        {
          "internalType": "string",
          "name": "",
          "type": "string"
        }
      ],
      "stateMutability": "view",
      "type": "function"
    },
    {
      "inputs": [
        {
          "internalType": "uint256",
          "name": "tokenId",
          "type": "uint256"
        }
      ],
      "name": "getApproved",
      "outputs": [
        {
          "internalType": "address",
          "name": "",
          "type": "address"
        }
      ],
      "stateMutability": "view",
      "type": "function"
    },
    {
      "inputs": [
        {
          "internalType": "uint256",
          "name": "tokenId",
          "type": "uint256"
        }
      ],
      "name": "getCloneMetadata",
      "outputs": [
        {
          "internalType": "string",
          "name": "",
          "type": "string"
        }
      ],
      "stateMutability": "view",
      "type": "function"
    },
    {
      "inputs": [
        {
          "internalType": "address",
          "name": "owner",
          "type": "address"
        },
        {
          "internalType": "address",
          "name": "operator",
          "type": "address"
        }
      ],
      "name": "isApprovedForAll",
      "outputs": [
        {
          "internalType": "bool",
          "name": "",
          "type": "bool"
        }
      ],
      "stateMutability": "view",
      "type": "function"
    },
    {
      "inputs": [
        {
          "internalType": "address",
          "name": "to",
          "type": "address"
        },
        {
          "internalType": "string",
          "name": "metadataURI",
          "type": "string"
        }
      ],
      "name": "mintClone",
      "outputs": [],
      "stateMutability": "nonpayable",
      "type": "function"
    },
    {
      "inputs": [],
      "name": "monadVerifier",
      "outputs": [
        {
          "internalType": "address",
          "name": "",
          "type": "address"
        }
      ],
      "stateMutability": "view",
      "type": "function"
    },
    {
      "inputs": [],
      "name": "name",
      "outputs": [
        {
          "internalType": "string",
          "name": "",
          "type": "string"
        }
      ],
      "stateMutability": "view",
      "type": "function"
    },
    {
      "inputs": [],
      "name": "owner",
      "outputs": [
        {
          "internalType": "address",
          "name": "",
          "type": "address"
        }
      ],
      "stateMutability": "view",
      "type": "function"
    },
    {
      "inputs": [
        {
          "internalType": "uint256",
          "name": "tokenId",
          "type": "uint256"
        }
      ],
      "name": "ownerOf",
      "outputs": [
        {
          "internalType": "address",
          "name": "",
          "type": "address"
        }
      ],
      "stateMutability": "view",
      "type": "function"
    },
    {
      "inputs": [],
      "name": "renounceOwnership",
      "outputs": [],
      "stateMutability": "nonpayable",
      "type": "function"
    },
    {
      "inputs": [
        {
          "internalType": "address",
          "name": "from",
          "type": "address"
        },
        {
          "internalType": "address",
          "name": "to",
          "type": "address"
        },
        {
          "internalType": "uint256",
          "name": "tokenId",
          "type": "uint256"
        }
      ],
      "name": "safeTransferFrom",
      "outputs": [],
      "stateMutability": "nonpayable",
      "type": "function"
    },
    {
      "inputs": [
        {
          "internalType": "address",
          "name": "from",
          "type": "address"
        },
        {
          "internalType": "address",
          "name": "to",
          "type": "address"
        },
        {
          "internalType": "uint256",
          "name": "tokenId",
          "type": "uint256"
        },
        {
          "internalType": "bytes",
          "name": "data",
          "type": "bytes"
        }
      ],
      "name": "safeTransferFrom",
      "outputs": [],
      "stateMutability": "nonpayable",
      "type": "function"
    },
    {
      "inputs": [
        {
          "internalType": "address",
          "name": "operator",
          "type": "address"
        },
        {
          "internalType": "bool",
          "name": "approved",
          "type": "bool"
        }
      ],
      "name": "setApprovalForAll",
      "outputs": [],
      "stateMutability": "nonpayable",
      "type": "function"
    },
    {
      "inputs": [
        {
          "internalType": "bytes4",
          "name": "interfaceId",
          "type": "bytes4"
        }
      ],
      "name": "supportsInterface",
      "outputs": [
        {
          "internalType": "bool",
          "name": "",
          "type": "bool"
        }
      ],
      "stateMutability": "view",
      "type": "function"
    },
    {
      "inputs": [],
      "name": "symbol",
      "outputs": [
        {
          "internalType": "string",
          "name": "",
          "type": "string"
        }
      ],
      "stateMutability": "view",
      "type": "function"
    },
    {
      "inputs": [],
      "name": "tokenIdCounter",
      "outputs": [
        {
          "internalType": "uint256",
          "name": "",
          "type": "uint256"
        }
      ],
      "stateMutability": "view",
      "type": "function"
    },
    {
      "inputs": [
        {
          "internalType": "uint256",
          "name": "tokenId",
          "type": "uint256"
        }
      ],
      "name": "tokenURI",
      "outputs": [
        {
          "internalType": "string",
          "name": "",
          "type": "string"
        }
      ],
      "stateMutability": "view",
      "type": "function"
    },
    {
      "inputs": [
        {
          "internalType": "address",
          "name": "from",
          "type": "address"
        },
        {
          "internalType": "address",
          "name": "to",
          "type": "address"
        },
        {
          "internalType": "uint256",
          "name": "tokenId",
          "type": "uint256"
        }
      ],
      "name": "transferFrom",
      "outputs": [],
      "stateMutability": "nonpayable",
      "type": "function"
    },
    {
      "inputs": [
        {
          "internalType": "address",
          "name": "newOwner",
          "type": "address"
        }
      ],
      "name": "transferOwnership",
      "outputs": [],
      "stateMutability": "nonpayable",
      "type": "function"
    },
    {
      "inputs": [
        {
          "internalType": "uint256",
          "name": "tokenId",
          "type": "uint256"
        },
        {
          "internalType": "string",
          "name": "newMetadataURI",
          "type": "string"
        }
      ],
      "name": "updateMetadata",
      "outputs": [],
      "stateMutability": "nonpayable",
      "type": "function"
    },
    {
      "inputs": [
        {
          "internalType": "address",
          "name": "user",
          "type": "address"
        },
        {
          "internalType": "uint256",
          "name": "tokenId",
          "type": "uint256"
        }
      ],
      "name": "verifyOwnership",
      "outputs": [
        {
          "internalType": "bool",
          "name": "",
          "type": "bool"
        }
      ],
      "stateMutability": "view",
      "type": "function"
    }
  ],
  "bytecode": "0x60806040523480156200001157600080fd5b5060405162003a2c38038062003a2c833981810160405281019062000037919062000271565b6040518060400160405280600a81526020017f4149436c6f6e654e4654000000000000000000000000000000000000000000008152506040518060400160405280600781526020017f4149436c6f6e65000000000000000000000000000000000000000000000000008152508160009081620000b491906200051d565b508060019081620000c691906200051d565b505050620000e9620000dd6200013960201b60201c565b6200014160201b60201c565b80600960006101000a81548173ffffffffffffffffffffffffffffffffffffffff021916908373ffffffffffffffffffffffffffffffffffffffff16021790555060016008819055505062000604565b600033905090565b6000600760009054906101000a900473ffffffffffffffffffffffffffffffffffffffff16905081600760006101000a81548173ffffffffffffffffffffffffffffffffffffffff021916908373ffffffffffffffffffffffffffffffffffffffff1602179055508173ffffffffffffffffffffffffffffffffffffffff168173ffffffffffffffffffffffffffffffffffffffff167f8be0079c531659141344cd1fd0a4f28419497f9722a3daafe3b4186f6b6457e060405160405180910390a35050565b600080fd5b600073ffffffffffffffffffffffffffffffffffffffff82169050919050565b600062000239826200020c565b9050919050565b6200024b816200022c565b81146200025757600080fd5b50565b6000815190506200026b8162000240565b92915050565b6000602082840312156200028a576200028962000207565b5b60006200029a848285016200025a565b91505092915050565b600081519050919050565b7f4e487b7100000000000000000000000000000000000000000000000000000000600052604160045260246000fd5b7f4e487b7100000000000000000000000000000000000000000000000000000000600052602260045260246000fd5b600060028204905060018216806200032557607f821691505b6020821081036200033b576200033a620002dd565b5b50919050565b60008190508160005260206000209050919050565b60006020601f8301049050919050565b600082821b905092915050565b600060088302620003a57fffffffffffffffffffffffffffffffffffffffffffffffffffffffffffffffff8262000366565b620003b1868362000366565b95508019841693508086168417925050509392505050565b6000819050919050565b6000819050919050565b6000620003fe620003f8620003f284620003c9565b620003d3565b620003c9565b9050919050565b6000819050919050565b6200041a83620003dd565b62000432620004298262000405565b84845462000373565b825550505050565b600090565b620004496200043a565b620004568184846200040f565b505050565b5b818110156200047e57620004726000826200043f565b6001810190506200045c565b5050565b601f821115620004cd57620004978162000341565b620004a28462000356565b81016020851015620004b2578190505b620004ca620004c18562000356565b8301826200045b565b50505b505050565b600082821c905092915050565b6000620004f260001984600802620004d2565b1980831691505092915050565b60006200050d8383620004df565b9150826002028217905092915050565b6200052882620002a3565b67ffffffffffffffff811115620005445762000543620002ae565b5b6200055082546200030c565b6200055d82828562000482565b600060209050601f83116001811462000595576000841562000580578287015190505b6200058c8582620004ff565b865550620005fc565b601f198416620005a58662000341565b60005b82811015620005cf57848901518255600182019150602085019450602081019050620005a8565b86831015620005ef5784890151620005eb601f891682620004df565b8355505b6001600288020188555050505b505050505050565b61341880620006146000396000f3fe608060405234801561001057600080fd5b506004361061014d5760003560e01c806370a08231116100c3578063a5c26ea81161007c578063a5c26ea81461039c578063b88d4fde146103ba578063bce4713f146103d6578063c87b56dd14610406578063e985e9c514610436578063f2fde38b146104665761014d565b806370a08231146102ec578063715018a61461031c5780638da5cb5b1461032657806395d89b411461034457806398bdf6f514610362578063a22cb465146103805761014d565b806323b872dd1161011557806323b872dd1461020857806332cd3a5c1461022457806342842e0e1461025457806353c8388e146102705780635b14ed0b1461028c5780636352211e146102bc5761014d565b806301ffc9a71461015257806306fdde0314610182578063081812fc146101a0578063095ea7b3146101d0578063219a88e9146101ec575b600080fd5b61016c60048036038101906101679190612074565b610482565b60405161017991906120bc565b60405180910390f35b61018a6104e3565b6040516101979190612167565b60405180910390f35b6101ba60048036038101906101b591906121bf565b610575565b6040516101c7919061222d565b60405180910390f35b6101ea60048036038101906101e59190612274565b6105bb565b005b610206600480360381019061020191906123e9565b6106d2565b005b610222600480360381019061021d9190612445565b610783565b005b61023e600480360381019061023991906121bf565b6107e3565b60405161024b9190612167565b60405180910390f35b61026e60048036038101906102699190612445565b610883565b005b61028a60048036038101906102859190612498565b6108a3565b005b6102a660048036038101906102a19190612274565b610948565b6040516102b391906120bc565b60405180910390f35b6102d660048036038101906102d191906121bf565b610989565b6040516102e3919061222d565b60405180910390f35b610306600480360381019061030191906124f4565b610a0f565b6040516103139190612530565b60405180910390f35b610324610ac6565b005b61032e610ada565b60405161033b919061222d565b60405180910390f35b61034c610b04565b6040516103599190612167565b60405180910390f35b61036a610b96565b6040516103779190612530565b60405180910390f35b61039a60048036038101906103959190612577565b610b9c565b005b6103a4610bb2565b6040516103b1919061222d565b60405180910390f35b6103d460048036038101906103cf9190612658565b610bd8565b005b6103f060048036038101906103eb91906121bf565b610c3a565b6040516103fd9190612167565b60405180910390f35b610420600480360381019061041b91906121bf565b610cdf565b60405161042d9190612167565b60405180910390f35b610450600480360381019061044b91906126db565b610df1565b60405161045d91906120bc565b60405180910390f35b610480600480360381019061047b91906124f4565b610e85565b005b6000634906490660e01b7bffffffffffffffffffffffffffffffffffffffffffffffffffffffff1916827bffffffffffffffffffffffffffffffffffffffffffffffffffffffff191614806104dc57506104db82610f08565b5b9050919050565b6060600080546104f29061274a565b80601f016020809104026020016040519081016040528092919081815260200182805461051e9061274a565b801561056b5780601f106105405761010080835404028352916020019161056b565b820191906000526020600020905b81548152906001019060200180831161054e57829003601f168201915b5050505050905090565b600061058082610fea565b6004600083815260200190815260200160002060009054906101000a900473ffffffffffffffffffffffffffffffffffffffff169050919050565b60006105c682610989565b90508073ffffffffffffffffffffffffffffffffffffffff168373ffffffffffffffffffffffffffffffffffffffff1603610636576040517f08c379a000000000000000000000000000000000000000000000000000000000815260040161062d906127ed565b60405180910390fd5b8073ffffffffffffffffffffffffffffffffffffffff16610655611035565b73ffffffffffffffffffffffffffffffffffffffff16148061068457506106838161067e611035565b610df1565b5b6106c3576040517f08c379a00000000000000000000000000000000000000000000000000000000081526004016106ba9061287f565b60405180910390fd5b6106cd838361103d565b505050565b6106da6110f6565b600060085490506106eb8382611174565b6106f58183611192565b81600a600083815260200190815260200160002090816107159190612a4b565b506008600081548092919061072990612b4c565b91905055508273ffffffffffffffffffffffffffffffffffffffff167ffe9facaeda7803844b4b343f9e20ad535f18b4e1d9c8c8c4d09414c5abd722488284604051610776929190612b94565b60405180910390a2505050565b61079461078e611035565b82611236565b6107d3576040517f08c379a00000000000000000000000000000000000000000000000000000000081526004016107ca90612c36565b60405180910390fd5b6107de8383836112cb565b505050565b600a60205280600052604060002060009150905080546108029061274a565b80601f016020809104026020016040519081016040528092919081815260200182805461082e9061274a565b801561087b5780601f106108505761010080835404028352916020019161087b565b820191906000526020600020905b81548152906001019060200180831161085e57829003601f168201915b505050505081565b61089e83838360405180602001604052806000815250610bd8565b505050565b3373ffffffffffffffffffffffffffffffffffffffff166108c383610989565b73ffffffffffffffffffffffffffffffffffffffff1614610919576040517f08c379a000000000000000000000000000000000000000000000000000000000815260040161091090612cc8565b60405180910390fd5b6109238282611192565b80600a600084815260200190815260200160002090816109439190612a4b565b505050565b60008273ffffffffffffffffffffffffffffffffffffffff1661096a83610989565b73ffffffffffffffffffffffffffffffffffffffff1614905092915050565b600080610995836115c4565b9050600073ffffffffffffffffffffffffffffffffffffffff168173ffffffffffffffffffffffffffffffffffffffff1603610a06576040517f08c379a00000000000000000000000000000000000000000000000000000000081526004016109fd90612d34565b60405180910390fd5b80915050919050565b60008073ffffffffffffffffffffffffffffffffffffffff168273ffffffffffffffffffffffffffffffffffffffff1603610a7f576040517f08c379a0000000000000000000000000000000000000000000000000000000008152600401610a7690612dc6565b60405180910390fd5b600360008373ffffffffffffffffffffffffffffffffffffffff1673ffffffffffffffffffffffffffffffffffffffff168152602001908152602001600020549050919050565b610ace6110f6565b610ad86000611601565b565b6000600760009054906101000a900473ffffffffffffffffffffffffffffffffffffffff16905090565b606060018054610b139061274a565b80601f0160208091040260200160405190810160405280929190818152602001828054610b3f9061274a565b8015610b8c5780601f10610b6157610100808354040283529160200191610b8c565b820191906000526020600020905b815481529060010190602001808311610b6f57829003601f168201915b5050505050905090565b60085481565b610bae610ba7611035565b83836116c7565b5050565b600960009054906101000a900473ffffffffffffffffffffffffffffffffffffffff1681565b610be9610be3611035565b83611236565b610c28576040517f08c379a0000000000000000000000000000000000000000000000000000000008152600401610c1f90612c36565b60405180910390fd5b610c3484848484611833565b50505050565b6060600a60008381526020019081526020016000208054610c5a9061274a565b80601f0160208091040260200160405190810160405280929190818152602001828054610c869061274a565b8015610cd35780601f10610ca857610100808354040283529160200191610cd3565b820191906000526020600020905b815481529060010190602001808311610cb657829003601f168201915b50505050509050919050565b6060610cea82610fea565b6000600660008481526020019081526020016000208054610d0a9061274a565b80601f0160208091040260200160405190810160405280929190818152602001828054610d369061274a565b8015610d835780601f10610d5857610100808354040283529160200191610d83565b820191906000526020600020905b815481529060010190602001808311610d6657829003601f168201915b505050505090506000610d9461188f565b90506000815103610da9578192505050610dec565b600082511115610dde578082604051602001610dc6929190612e22565b60405160208183030381529060405292505050610dec565b610de7846118a6565b925050505b919050565b6000600560008473ffffffffffffffffffffffffffffffffffffffff1673ffffffffffffffffffffffffffffffffffffffff16815260200190815260200160002060008373ffffffffffffffffffffffffffffffffffffffff1673ffffffffffffffffffffffffffffffffffffffff16815260200190815260200160002060009054906101000a900460ff16905092915050565b610e8d6110f6565b600073ffffffffffffffffffffffffffffffffffffffff168173ffffffffffffffffffffffffffffffffffffffff1603610efc576040517f08c379a0000000000000000000000000000000000000000000000000000000008152600401610ef390612eb8565b60405180910390fd5b610f0581611601565b50565b60007f80ac58cd000000000000000000000000000000000000000000000000000000007bffffffffffffffffffffffffffffffffffffffffffffffffffffffff1916827bffffffffffffffffffffffffffffffffffffffffffffffffffffffff19161480610fd357507f5b5e139f000000000000000000000000000000000000000000000000000000007bffffffffffffffffffffffffffffffffffffffffffffffffffffffff1916827bffffffffffffffffffffffffffffffffffffffffffffffffffffffff1916145b80610fe35750610fe28261190e565b5b9050919050565b610ff381611978565b611032576040517f08c379a000000000000000000000000000000000000000000000000000000000815260040161102990612d34565b60405180910390fd5b50565b600033905090565b816004600083815260200190815260200160002060006101000a81548173ffffffffffffffffffffffffffffffffffffffff021916908373ffffffffffffffffffffffffffffffffffffffff160217905550808273ffffffffffffffffffffffffffffffffffffffff166110b083610989565b73ffffffffffffffffffffffffffffffffffffffff167f8c5be1e5ebec7d5bd14f71427d1e84f3dd0314c0f7b2291e5b200ac8c7c3b92560405160405180910390a45050565b6110fe611035565b73ffffffffffffffffffffffffffffffffffffffff1661111c610ada565b73ffffffffffffffffffffffffffffffffffffffff1614611172576040517f08c379a000000000000000000000000000000000000000000000000000000000815260040161116990612f24565b60405180910390fd5b565b61118e8282604051806020016040528060008152506119b9565b5050565b61119b82611978565b6111da576040517f08c379a00000000000000000000000000000000000000000000000000000000081526004016111d190612fb6565b60405180910390fd5b806006600084815260200190815260200160002090816111fa9190612a4b565b507ff8e1a15aba9398e019f0b49df1a4fde98ee17ae345cb5f6b5e2c27f5033e8ce78260405161122a9190612530565b60405180910390a15050565b60008061124283610989565b90508073ffffffffffffffffffffffffffffffffffffffff168473ffffffffffffffffffffffffffffffffffffffff16148061128457506112838185610df1565b5b806112c257508373ffffffffffffffffffffffffffffffffffffffff166112aa84610575565b73ffffffffffffffffffffffffffffffffffffffff16145b91505092915050565b8273ffffffffffffffffffffffffffffffffffffffff166112eb82610989565b73ffffffffffffffffffffffffffffffffffffffff1614611341576040517f08c379a000000000000000000000000000000000000000000000000000000000815260040161133890613048565b60405180910390fd5b600073ffffffffffffffffffffffffffffffffffffffff168273ffffffffffffffffffffffffffffffffffffffff16036113b0576040517f08c379a00000000000000000000000000000000000000000000000000000000081526004016113a7906130da565b60405180910390fd5b6113bd8383836001611a14565b8273ffffffffffffffffffffffffffffffffffffffff166113dd82610989565b73ffffffffffffffffffffffffffffffffffffffff1614611433576040517f08c379a000000000000000000000000000000000000000000000000000000000815260040161142a90613048565b60405180910390fd5b6004600082815260200190815260200160002060006101000a81549073ffffffffffffffffffffffffffffffffffffffff02191690556001600360008573ffffffffffffffffffffffffffffffffffffffff1673ffffffffffffffffffffffffffffffffffffffff168152602001908152602001600020600082825403925050819055506001600360008473ffffffffffffffffffffffffffffffffffffffff1673ffffffffffffffffffffffffffffffffffffffff16815260200190815260200160002060008282540192505081905550816002600083815260200190815260200160002060006101000a81548173ffffffffffffffffffffffffffffffffffffffff021916908373ffffffffffffffffffffffffffffffffffffffff160217905550808273ffffffffffffffffffffffffffffffffffffffff168473ffffffffffffffffffffffffffffffffffffffff167fddf252ad1be2c89b69c2b068fc378daa952ba7f163c4a11628f55a4df523b3ef60405160405180910390a46115bf8383836001611a1a565b505050565b60006002600083815260200190815260200160002060009054906101000a900473ffffffffffffffffffffffffffffffffffffffff169050919050565b6000600760009054906101000a900473ffffffffffffffffffffffffffffffffffffffff16905081600760006101000a81548173ffffffffffffffffffffffffffffffffffffffff021916908373ffffffffffffffffffffffffffffffffffffffff1602179055508173ffffffffffffffffffffffffffffffffffffffff168173ffffffffffffffffffffffffffffffffffffffff167f8be0079c531659141344cd1fd0a4f28419497f9722a3daafe3b4186f6b6457e060405160405180910390a35050565b8173ffffffffffffffffffffffffffffffffffffffff168373ffffffffffffffffffffffffffffffffffffffff1603611735576040517f08c379a000000000000000000000000000000000000000000000000000000000815260040161172c90613146565b60405180910390fd5b80600560008573ffffffffffffffffffffffffffffffffffffffff1673ffffffffffffffffffffffffffffffffffffffff16815260200190815260200160002060008473ffffffffffffffffffffffffffffffffffffffff1673ffffffffffffffffffffffffffffffffffffffff16815260200190815260200160002060006101000a81548160ff0219169083151502179055508173ffffffffffffffffffffffffffffffffffffffff168373ffffffffffffffffffffffffffffffffffffffff167f17307eab39ab6107e8899845ad3d59bd9653f200f220920489ca2b5937696c318360405161182691906120bc565b60405180910390a3505050565b61183e8484846112cb565b61184a84848484611a20565b611889576040517f08c379a0000000000000000000000000000000000000000000000000000000008152600401611880906131d8565b60405180910390fd5b50505050565b606060405180602001604052806000815250905090565b60606118b182610fea565b60006118bb61188f565b905060008151116118db5760405180602001604052806000815250611906565b806118e584611ba7565b6040516020016118f6929190612e22565b6040516020818303038152906040525b915050919050565b60007f01ffc9a7000000000000000000000000000000000000000000000000000000007bffffffffffffffffffffffffffffffffffffffffffffffffffffffff1916827bffffffffffffffffffffffffffffffffffffffffffffffffffffffff1916149050919050565b60008073ffffffffffffffffffffffffffffffffffffffff1661199a836115c4565b73ffffffffffffffffffffffffffffffffffffffff1614159050919050565b6119c38383611c75565b6119d06000848484611a20565b611a0f576040517f08c379a0000000000000000000000000000000000000000000000000000000008152600401611a06906131d8565b60405180910390fd5b505050565b50505050565b50505050565b6000611a418473ffffffffffffffffffffffffffffffffffffffff16611e92565b15611b9a578373ffffffffffffffffffffffffffffffffffffffff1663150b7a02611a6a611035565b8786866040518563ffffffff1660e01b8152600401611a8c949392919061324d565b6020604051808303816000875af1925050508015611ac857506040513d601f19601f82011682018060405250810190611ac591906132ae565b60015b611b4a573d8060008114611af8576040519150601f19603f3d011682016040523d82523d6000602084013e611afd565b606091505b506000815103611b42576040517f08c379a0000000000000000000000000000000000000000000000000000000008152600401611b39906131d8565b60405180910390fd5b805181602001fd5b63150b7a0260e01b7bffffffffffffffffffffffffffffffffffffffffffffffffffffffff1916817bffffffffffffffffffffffffffffffffffffffffffffffffffffffff191614915050611b9f565b600190505b949350505050565b606060006001611bb684611eb5565b01905060008167ffffffffffffffff811115611bd557611bd46122be565b5b6040519080825280601f01601f191660200182016040528015611c075781602001600182028036833780820191505090505b509050600082602001820190505b600115611c6a578080600190039150507f3031323334353637383961626364656600000000000000000000000000000000600a86061a8153600a8581611c5e57611c5d6132db565b5b04945060008503611c15575b819350505050919050565b600073ffffffffffffffffffffffffffffffffffffffff168273ffffffffffffffffffffffffffffffffffffffff1603611ce4576040517f08c379a0000000000000000000000000000000000000000000000000000000008152600401611cdb90613356565b60405180910390fd5b611ced81611978565b15611d2d576040517f08c379a0000000000000000000000000000000000000000000000000000000008152600401611d24906133c2565b60405180910390fd5b611d3b600083836001611a14565b611d4481611978565b15611d84576040517f08c379a0000000000000000000000000000000000000000000000000000000008152600401611d7b906133c2565b60405180910390fd5b6001600360008473ffffffffffffffffffffffffffffffffffffffff1673ffffffffffffffffffffffffffffffffffffffff16815260200190815260200160002060008282540192505081905550816002600083815260200190815260200160002060006101000a81548173ffffffffffffffffffffffffffffffffffffffff021916908373ffffffffffffffffffffffffffffffffffffffff160217905550808273ffffffffffffffffffffffffffffffffffffffff16600073ffffffffffffffffffffffffffffffffffffffff167fddf252ad1be2c89b69c2b068fc378daa952ba7f163c4a11628f55a4df523b3ef60405160405180910390a4611e8e600083836001611a1a565b5050565b6000808273ffffffffffffffffffffffffffffffffffffffff163b119050919050565b600080600090507a184f03e93ff9f4daa797ed6e38ed64bf6a1f0100000000000000008310611f13577a184f03e93ff9f4daa797ed6e38ed64bf6a1f0100000000000000008381611f0957611f086132db565b5b0492506040810190505b6d04ee2d6d415b85acef81000000008310611f50576d04ee2d6d415b85acef81000000008381611f4657611f456132db565b5b0492506020810190505b662386f26fc100008310611f7f57662386f26fc100008381611f7557611f746132db565b5b0492506010810190505b6305f5e1008310611fa8576305f5e1008381611f9e57611f9d6132db565b5b0492506008810190505b6127108310611fcd576127108381611fc357611fc26132db565b5b0492506004810190505b60648310611ff05760648381611fe657611fe56132db565b5b0492506002810190505b600a8310611fff576001810190505b80915050919050565b6000604051905090565b600080fd5b600080fd5b60007fffffffff0000000000000000000000000000000000000000000000000000000082169050919050565b6120518161201c565b811461205c57600080fd5b50565b60008135905061206e81612048565b92915050565b60006020828403121561208a57612089612012565b5b60006120988482850161205f565b91505092915050565b60008115159050919050565b6120b6816120a1565b82525050565b60006020820190506120d160008301846120ad565b92915050565b600081519050919050565b600082825260208201905092915050565b60005b838110156121115780820151818401526020810190506120f6565b60008484015250505050565b6000601f19601f8301169050919050565b6000612139826120d7565b61214381856120e2565b93506121538185602086016120f3565b61215c8161211d565b840191505092915050565b60006020820190508181036000830152612181818461212e565b905092915050565b6000819050919050565b61219c81612189565b81146121a757600080fd5b50565b6000813590506121b981612193565b92915050565b6000602082840312156121d5576121d4612012565b5b60006121e3848285016121aa565b91505092915050565b600073ffffffffffffffffffffffffffffffffffffffff82169050919050565b6000612217826121ec565b9050919050565b6122278161220c565b82525050565b6000602082019050612242600083018461221e565b92915050565b6122518161220c565b811461225c57600080fd5b50565b60008135905061226e81612248565b92915050565b6000806040838503121561228b5761228a612012565b5b60006122998582860161225f565b92505060206122aa858286016121aa565b9150509250929050565b600080fd5b600080fd5b7f4e487b7100000000000000000000000000000000000000000000000000000000600052604160045260246000fd5b6122f68261211d565b810181811067ffffffffffffffff82111715612315576123146122be565b5b80604052505050565b6000612328612008565b905061233482826122ed565b919050565b600067ffffffffffffffff821115612354576123536122be565b5b61235d8261211d565b9050602081019050919050565b82818337600083830152505050565b600061238c61238784612339565b61231e565b9050828152602081018484840111156123a8576123a76122b9565b5b6123b384828561236a565b509392505050565b600082601f8301126123d0576123cf6122b4565b5b81356123e0848260208601612379565b91505092915050565b60008060408385031215612400576123ff612012565b5b600061240e8582860161225f565b925050602083013567ffffffffffffffff81111561242f5761242e612017565b5b61243b858286016123bb565b9150509250929050565b60008060006060848603121561245e5761245d612012565b5b600061246c8682870161225f565b935050602061247d8682870161225f565b925050604061248e868287016121aa565b9150509250925092565b600080604083850312156124af576124ae612012565b5b60006124bd858286016121aa565b925050602083013567ffffffffffffffff8111156124de576124dd612017565b5b6124ea858286016123bb565b9150509250929050565b60006020828403121561250a57612509612012565b5b60006125188482850161225f565b91505092915050565b61252a81612189565b82525050565b60006020820190506125456000830184612521565b92915050565b612554816120a1565b811461255f57600080fd5b50565b6000813590506125718161254b565b92915050565b6000806040838503121561258e5761258d612012565b5b600061259c8582860161225f565b92505060206125ad85828601612562565b9150509250929050565b600067ffffffffffffffff8211156125d2576125d16122be565b5b6125db8261211d565b9050602081019050919050565b60006125fb6125f6846125b7565b61231e565b905082815260208101848484011115612617576126166122b9565b5b61262284828561236a565b509392505050565b600082601f83011261263f5761263e6122b4565b5b813561264f8482602086016125e8565b91505092915050565b6000806000806080858703121561267257612671612012565b5b60006126808782880161225f565b94505060206126918782880161225f565b93505060406126a2878288016121aa565b925050606085013567ffffffffffffffff8111156126c3576126c2612017565b5b6126cf8782880161262a565b91505092959194509250565b600080604083850312156126f2576126f1612012565b5b60006127008582860161225f565b92505060206127118582860161225f565b9150509250929050565b7f4e487b7100000000000000000000000000000000000000000000000000000000600052602260045260246000fd5b6000600282049050600182168061276257607f821691505b6020821081036127755761277461271b565b5b50919050565b7f4552433732313a20617070726f76616c20746f2063757272656e74206f776e6560008201527f7200000000000000000000000000000000000000000000000000000000000000602082015250565b60006127d76021836120e2565b91506127e28261277b565b604082019050919050565b60006020820190508181036000830152612806816127ca565b9050919050565b7f4552433732313a20617070726f76652063616c6c6572206973206e6f7420746f60008201527f6b656e206f776e6572206f7220617070726f76656420666f7220616c6c000000602082015250565b6000612869603d836120e2565b91506128748261280d565b604082019050919050565b600060208201905081810360008301526128988161285c565b9050919050565b60008190508160005260206000209050919050565b60006020601f8301049050919050565b600082821b905092915050565b6000600883026129017fffffffffffffffffffffffffffffffffffffffffffffffffffffffffffffffff826128c4565b61290b86836128c4565b95508019841693508086168417925050509392505050565b6000819050919050565b600061294861294361293e84612189565b612923565b612189565b9050919050565b6000819050919050565b6129628361292d565b61297661296e8261294f565b8484546128d1565b825550505050565b600090565b61298b61297e565b612996818484612959565b505050565b5b818110156129ba576129af600082612983565b60018101905061299c565b5050565b601f8211156129ff576129d08161289f565b6129d9846128b4565b810160208510156129e8578190505b6129fc6129f4856128b4565b83018261299b565b50505b505050565b600082821c905092915050565b6000612a2260001984600802612a04565b1980831691505092915050565b6000612a3b8383612a11565b9150826002028217905092915050565b612a54826120d7565b67ffffffffffffffff811115612a6d57612a6c6122be565b5b612a77825461274a565b612a828282856129be565b600060209050601f831160018114612ab55760008415612aa3578287015190505b612aad8582612a2f565b865550612b15565b601f198416612ac38661289f565b60005b82811015612aeb57848901518255600182019150602085019450602081019050612ac6565b86831015612b085784890151612b04601f891682612a11565b8355505b6001600288020188555050505b505050505050565b7f4e487b7100000000000000000000000000000000000000000000000000000000600052601160045260246000fd5b6000612b5782612189565b91507fffffffffffffffffffffffffffffffffffffffffffffffffffffffffffffffff8203612b8957612b88612b1d565b5b600182019050919050565b6000604082019050612ba96000830185612521565b8181036020830152612bbb818461212e565b90509392505050565b7f4552433732313a2063616c6c6572206973206e6f7420746f6b656e206f776e6560008201527f72206f7220617070726f76656400000000000000000000000000000000000000602082015250565b6000612c20602d836120e2565b9150612c2b82612bc4565b604082019050919050565b60006020820190508181036000830152612c4f81612c13565b9050919050565b7f596f7520617265206e6f7420746865206f776e6572206f66207468697320636c60008201527f6f6e650000000000000000000000000000000000000000000000000000000000602082015250565b6000612cb26023836120e2565b9150612cbd82612c56565b604082019050919050565b60006020820190508181036000830152612ce181612ca5565b9050919050565b7f4552433732313a20696e76616c696420746f6b656e2049440000000000000000600082015250565b6000612d1e6018836120e2565b9150612d2982612ce8565b602082019050919050565b60006020820190508181036000830152612d4d81612d11565b9050919050565b7f4552433732313a2061646472657373207a65726f206973206e6f74206120766160008201527f6c6964206f776e65720000000000000000000000000000000000000000000000602082015250565b6000612db06029836120e2565b9150612dbb82612d54565b604082019050919050565b60006020820190508181036000830152612ddf81612da3565b9050919050565b600081905092915050565b6000612dfc826120d7565b612e068185612de6565b9350612e168185602086016120f3565b80840191505092915050565b6000612e2e8285612df1565b9150612e3a8284612df1565b91508190509392505050565b7f4f776e61626c653a206e6577206f776e657220697320746865207a65726f206160008201527f6464726573730000000000000000000000000000000000000000000000000000602082015250565b6000612ea26026836120e2565b9150612ead82612e46565b604082019050919050565b60006020820190508181036000830152612ed181612e95565b9050919050565b7f4f776e61626c653a2063616c6c6572206973206e6f7420746865206f776e6572600082015250565b6000612f0e6020836120e2565b9150612f1982612ed8565b602082019050919050565b60006020820190508181036000830152612f3d81612f01565b9050919050565b7f45524337323155524953746f726167653a2055524920736574206f66206e6f6e60008201527f6578697374656e7420746f6b656e000000000000000000000000000000000000602082015250565b6000612fa0602e836120e2565b9150612fab82612f44565b604082019050919050565b60006020820190508181036000830152612fcf81612f93565b9050919050565b7f4552433732313a207472616e736665722066726f6d20696e636f72726563742060008201527f6f776e6572000000000000000000000000000000000000000000000000000000602082015250565b60006130326025836120e2565b915061303d82612fd6565b604082019050919050565b6000602082019050818103600083015261306181613025565b9050919050565b7f4552433732313a207472616e7366657220746f20746865207a65726f2061646460008201527f7265737300000000000000000000000000000000000000000000000000000000602082015250565b60006130c46024836120e2565b91506130cf82613068565b604082019050919050565b600060208201905081810360008301526130f3816130b7565b9050919050565b7f4552433732313a20617070726f766520746f2063616c6c657200000000000000600082015250565b60006131306019836120e2565b915061313b826130fa565b602082019050919050565b6000602082019050818103600083015261315f81613123565b9050919050565b7f4552433732313a207472616e7366657220746f206e6f6e20455243373231526560008201527f63656976657220696d706c656d656e7465720000000000000000000000000000602082015250565b60006131c26032836120e2565b91506131cd82613166565b604082019050919050565b600060208201905081810360008301526131f1816131b5565b9050919050565b600081519050919050565b600082825260208201905092915050565b600061321f826131f8565b6132298185613203565b93506132398185602086016120f3565b6132428161211d565b840191505092915050565b6000608082019050613262600083018761221e565b61326f602083018661221e565b61327c6040830185612521565b818103606083015261328e8184613214565b905095945050505050565b6000815190506132a881612048565b92915050565b6000602082840312156132c4576132c3612012565b5b60006132d284828501613299565b91505092915050565b7f4e487b7100000000000000000000000000000000000000000000000000000000600052601260045260246000fd5b7f4552433732313a206d696e7420746f20746865207a65726f2061646472657373600082015250565b60006133406020836120e2565b915061334b8261330a565b602082019050919050565b6000602082019050818103600083015261336f81613333565b9050919050565b7f4552433732313a20746f6b656e20616c7265616479206d696e74656400000000600082015250565b60006133ac601c836120e2565b91506133b782613376565b602082019050919050565b600060208201905081810360008301526133db8161339f565b905091905056fea2646970667358221220376421ace45ad7e8fbbc0da1f5528a48322324fe90a5b73f7f77356244386fc464736f6c63430008140033",
  "linkReferences": {},
  "deployedLinkReferences": {}
}